{
	"contracts/Market.sol": {
		"Market": {
			"abi": [
				{
					"anonymous": false,
					"inputs": [
						{
							"indexed": false,
							"internalType": "address",
							"name": "seller",
							"type": "address"
						},
						{
							"indexed": false,
							"internalType": "address",
							"name": "token",
							"type": "address"
						},
						{
							"indexed": false,
							"internalType": "uint256",
							"name": "tokenId",
							"type": "uint256"
						}
					],
					"name": "Cancel",
					"type": "event"
				},
				{
					"anonymous": false,
					"inputs": [
						{
							"indexed": false,
							"internalType": "address",
							"name": "seller",
							"type": "address"
						},
						{
							"indexed": false,
							"internalType": "address",
							"name": "token",
							"type": "address"
						},
						{
							"indexed": false,
							"internalType": "uint256",
							"name": "tokenId",
							"type": "uint256"
						},
						{
							"indexed": false,
							"internalType": "uint256",
							"name": "price",
							"type": "uint256"
						},
						{
							"indexed": false,
							"internalType": "uint256",
							"name": "listingId",
							"type": "uint256"
						}
					],
					"name": "Listed",
					"type": "event"
				},
				{
					"anonymous": false,
					"inputs": [
						{
							"indexed": false,
							"internalType": "address",
							"name": "seller",
							"type": "address"
						},
						{
							"indexed": false,
							"internalType": "address",
							"name": "buyer",
							"type": "address"
						},
						{
							"indexed": false,
							"internalType": "address",
							"name": "token",
							"type": "address"
						},
						{
							"indexed": false,
							"internalType": "uint256",
							"name": "tokenId",
							"type": "uint256"
						},
						{
							"indexed": false,
							"internalType": "uint256",
							"name": "price",
							"type": "uint256"
						},
						{
							"indexed": false,
							"internalType": "uint256",
							"name": "listingId",
							"type": "uint256"
						}
					],
					"name": "Sale",
					"type": "event"
				},
				{
					"inputs": [
						{
							"internalType": "uint256",
							"name": "_id",
							"type": "uint256"
						}
					],
					"name": "buyToken",
					"outputs": [],
					"stateMutability": "payable",
					"type": "function"
				},
				{
					"inputs": [
						{
							"internalType": "uint256",
							"name": "_id",
							"type": "uint256"
						}
					],
					"name": "cancel",
					"outputs": [],
					"stateMutability": "nonpayable",
					"type": "function"
				},
				{
					"inputs": [
						{
							"internalType": "uint256",
							"name": "_id",
							"type": "uint256"
						}
					],
					"name": "getListing",
					"outputs": [
						{
							"components": [
								{
									"internalType": "address",
									"name": "token",
									"type": "address"
								},
								{
									"internalType": "address",
									"name": "seller",
									"type": "address"
								},
								{
									"internalType": "uint256",
									"name": "tokenId",
									"type": "uint256"
								},
								{
									"internalType": "uint256",
									"name": "price",
									"type": "uint256"
								},
								{
									"internalType": "enum Market.ListingStatus",
									"name": "status",
									"type": "uint8"
								}
							],
							"internalType": "struct Market.Listing",
							"name": "",
							"type": "tuple"
						}
					],
					"stateMutability": "view",
					"type": "function"
				},
				{
					"inputs": [
						{
							"internalType": "address",
							"name": "_token",
							"type": "address"
						},
						{
							"internalType": "uint256",
							"name": "_id",
							"type": "uint256"
						},
						{
							"internalType": "uint256",
							"name": "_price",
							"type": "uint256"
						}
					],
					"name": "listToken",
					"outputs": [],
					"stateMutability": "nonpayable",
					"type": "function"
				},
				{
					"inputs": [
						{
							"internalType": "uint256",
							"name": "",
							"type": "uint256"
						}
					],
					"name": "listings",
					"outputs": [
						{
							"internalType": "address",
							"name": "token",
							"type": "address"
						},
						{
							"internalType": "address",
							"name": "seller",
							"type": "address"
						},
						{
							"internalType": "uint256",
							"name": "tokenId",
							"type": "uint256"
						},
						{
							"internalType": "uint256",
							"name": "price",
							"type": "uint256"
						},
						{
							"internalType": "enum Market.ListingStatus",
							"name": "status",
							"type": "uint8"
						}
					],
					"stateMutability": "view",
					"type": "function"
				}
			],
			"devdoc": {
				"kind": "dev",
				"methods": {},
				"version": 1
			},
			"evm": {
				"assembly": "    /* \"contracts/Market.sol\":117:2348  contract Market {... */\n  mstore(0x40, 0x80)\n    /* \"contracts/Market.sol\":687:688  0 */\n  0x00\n    /* \"contracts/Market.sol\":658:688  uint256 private _listingId = 0 */\n  dup1\n  sstore\n    /* \"contracts/Market.sol\":117:2348  contract Market {... */\n  callvalue\n  dup1\n  iszero\n  tag_1\n  jumpi\n  0x00\n  dup1\n  revert\ntag_1:\n  pop\n  dataSize(sub_0)\n  dup1\n  dataOffset(sub_0)\n  0x00\n  codecopy\n  0x00\n  return\nstop\n\nsub_0: assembly {\n        /* \"contracts/Market.sol\":117:2348  contract Market {... */\n      mstore(0x40, 0x80)\n      jumpi(tag_1, lt(calldatasize, 0x04))\n      shr(0xe0, calldataload(0x00))\n      dup1\n      0x107a274a\n      eq\n      tag_2\n      jumpi\n      dup1\n      0x2d296bf1\n      eq\n      tag_3\n      jumpi\n      dup1\n      0x40e58ee5\n      eq\n      tag_4\n      jumpi\n      dup1\n      0x7e07590d\n      eq\n      tag_5\n      jumpi\n      dup1\n      0xde74e57b\n      eq\n      tag_6\n      jumpi\n    tag_1:\n      0x00\n      dup1\n      revert\n        /* \"contracts/Market.sol\":740:843  function getListing(uint256 _id) external view returns (Listing memory) {... */\n    tag_2:\n      callvalue\n      dup1\n      iszero\n      tag_7\n      jumpi\n      0x00\n      dup1\n      revert\n    tag_7:\n      pop\n      tag_8\n      0x04\n      dup1\n      calldatasize\n      sub\n      dup2\n      add\n      swap1\n      tag_9\n      swap2\n      swap1\n      tag_10\n      jump\t// in\n    tag_9:\n      tag_11\n      jump\t// in\n    tag_8:\n      mload(0x40)\n      tag_12\n      swap2\n      swap1\n      tag_13\n      jump\t// in\n    tag_12:\n      mload(0x40)\n      dup1\n      swap2\n      sub\n      swap1\n      return\n        /* \"contracts/Market.sol\":1243:1859  function buyToken(uint256 _id) external payable {... */\n    tag_3:\n      tag_14\n      0x04\n      dup1\n      calldatasize\n      sub\n      dup2\n      add\n      swap1\n      tag_15\n      swap2\n      swap1\n      tag_10\n      jump\t// in\n    tag_15:\n      tag_16\n      jump\t// in\n    tag_14:\n      stop\n        /* \"contracts/Market.sol\":1863:2346  function cancel(uint256 _id) public {... */\n    tag_4:\n      callvalue\n      dup1\n      iszero\n      tag_17\n      jumpi\n      0x00\n      dup1\n      revert\n    tag_17:\n      pop\n      tag_18\n      0x04\n      dup1\n      calldatasize\n      sub\n      dup2\n      add\n      swap1\n      tag_19\n      swap2\n      swap1\n      tag_10\n      jump\t// in\n    tag_19:\n      tag_20\n      jump\t// in\n    tag_18:\n      stop\n        /* \"contracts/Market.sol\":847:1239  function listToken(... */\n    tag_5:\n      callvalue\n      dup1\n      iszero\n      tag_21\n      jumpi\n      0x00\n      dup1\n      revert\n    tag_21:\n      pop\n      tag_22\n      0x04\n      dup1\n      calldatasize\n      sub\n      dup2\n      add\n      swap1\n      tag_23\n      swap2\n      swap1\n      tag_24\n      jump\t// in\n    tag_23:\n      tag_25\n      jump\t// in\n    tag_22:\n      stop\n        /* \"contracts/Market.sol\":692:735  mapping(uint256 => Listing) public listings */\n    tag_6:\n      callvalue\n      dup1\n      iszero\n      tag_26\n      jumpi\n      0x00\n      dup1\n      revert\n    tag_26:\n      pop\n      tag_27\n      0x04\n      dup1\n      calldatasize\n      sub\n      dup2\n      add\n      swap1\n      tag_28\n      swap2\n      swap1\n      tag_10\n      jump\t// in\n    tag_28:\n      tag_29\n      jump\t// in\n    tag_27:\n      mload(0x40)\n      tag_30\n      swap6\n      swap5\n      swap4\n      swap3\n      swap2\n      swap1\n      tag_31\n      jump\t// in\n    tag_30:\n      mload(0x40)\n      dup1\n      swap2\n      sub\n      swap1\n      return\n        /* \"contracts/Market.sol\":740:843  function getListing(uint256 _id) external view returns (Listing memory) {... */\n    tag_11:\n        /* \"contracts/Market.sol\":796:810  Listing memory */\n      tag_32\n      tag_33\n      jump\t// in\n    tag_32:\n        /* \"contracts/Market.sol\":825:833  listings */\n      0x01\n        /* \"contracts/Market.sol\":825:838  listings[_id] */\n      0x00\n        /* \"contracts/Market.sol\":834:837  _id */\n      dup4\n        /* \"contracts/Market.sol\":825:838  listings[_id] */\n      dup2\n      mstore\n      0x20\n      add\n      swap1\n      dup2\n      mstore\n      0x20\n      add\n      0x00\n      keccak256\n        /* \"contracts/Market.sol\":818:838  return listings[_id] */\n      mload(0x40)\n      dup1\n      0xa0\n      add\n      0x40\n      mstore\n      swap1\n      dup2\n      0x00\n      dup3\n      add\n      0x00\n      swap1\n      sload\n      swap1\n      0x0100\n      exp\n      swap1\n      div\n      0xffffffffffffffffffffffffffffffffffffffff\n      and\n      0xffffffffffffffffffffffffffffffffffffffff\n      and\n      0xffffffffffffffffffffffffffffffffffffffff\n      and\n      dup2\n      mstore\n      0x20\n      add\n      0x01\n      dup3\n      add\n      0x00\n      swap1\n      sload\n      swap1\n      0x0100\n      exp\n      swap1\n      div\n      0xffffffffffffffffffffffffffffffffffffffff\n      and\n      0xffffffffffffffffffffffffffffffffffffffff\n      and\n      0xffffffffffffffffffffffffffffffffffffffff\n      and\n      dup2\n      mstore\n      0x20\n      add\n      0x02\n      dup3\n      add\n      sload\n      dup2\n      mstore\n      0x20\n      add\n      0x03\n      dup3\n      add\n      sload\n      dup2\n      mstore\n      0x20\n      add\n      0x04\n      dup3\n      add\n      0x00\n      swap1\n      sload\n      swap1\n      0x0100\n      exp\n      swap1\n      div\n      0xff\n      and\n      0x02\n      dup2\n      gt\n      iszero\n      tag_35\n      jumpi\n      tag_36\n      tag_37\n      jump\t// in\n    tag_36:\n    tag_35:\n      0x02\n      dup2\n      gt\n      iszero\n      tag_38\n      jumpi\n      tag_39\n      tag_37\n      jump\t// in\n    tag_39:\n    tag_38:\n      dup2\n      mstore\n      pop\n      pop\n      swap1\n      pop\n        /* \"contracts/Market.sol\":740:843  function getListing(uint256 _id) external view returns (Listing memory) {... */\n      swap2\n      swap1\n      pop\n      jump\t// out\n        /* \"contracts/Market.sol\":1243:1859  function buyToken(uint256 _id) external payable {... */\n    tag_16:\n        /* \"contracts/Market.sol\":1297:1320  Listing storage listing */\n      0x00\n        /* \"contracts/Market.sol\":1323:1331  listings */\n      0x01\n        /* \"contracts/Market.sol\":1323:1336  listings[_id] */\n      0x00\n        /* \"contracts/Market.sol\":1332:1335  _id */\n      dup4\n        /* \"contracts/Market.sol\":1323:1336  listings[_id] */\n      dup2\n      mstore\n      0x20\n      add\n      swap1\n      dup2\n      mstore\n      0x20\n      add\n      0x00\n      keccak256\n        /* \"contracts/Market.sol\":1297:1336  Listing storage listing = listings[_id] */\n      swap1\n      pop\n        /* \"contracts/Market.sol\":1369:1389  ListingStatus.Active */\n      0x00\n        /* \"contracts/Market.sol\":1351:1389  listing.status == ListingStatus.Active */\n      0x02\n      dup2\n      gt\n      iszero\n      tag_41\n      jumpi\n      tag_42\n      tag_37\n      jump\t// in\n    tag_42:\n    tag_41:\n        /* \"contracts/Market.sol\":1351:1358  listing */\n      dup2\n        /* \"contracts/Market.sol\":1351:1365  listing.status */\n      0x04\n      add\n      0x00\n      swap1\n      sload\n      swap1\n      0x0100\n      exp\n      swap1\n      div\n      0xff\n      and\n        /* \"contracts/Market.sol\":1351:1389  listing.status == ListingStatus.Active */\n      0x02\n      dup2\n      gt\n      iszero\n      tag_43\n      jumpi\n      tag_44\n      tag_37\n      jump\t// in\n    tag_44:\n    tag_43:\n      eq\n        /* \"contracts/Market.sol\":1343:1416  require(listing.status == ListingStatus.Active, \"Listing must be active\") */\n      tag_45\n      jumpi\n      mload(0x40)\n      0x08c379a000000000000000000000000000000000000000000000000000000000\n      dup2\n      mstore\n      0x04\n      add\n      tag_46\n      swap1\n      tag_47\n      jump\t// in\n    tag_46:\n      mload(0x40)\n      dup1\n      swap2\n      sub\n      swap1\n      revert\n    tag_45:\n        /* \"contracts/Market.sol\":1444:1451  listing */\n      dup1\n        /* \"contracts/Market.sol\":1444:1458  listing.seller */\n      0x01\n      add\n      0x00\n      swap1\n      sload\n      swap1\n      0x0100\n      exp\n      swap1\n      div\n      0xffffffffffffffffffffffffffffffffffffffff\n      and\n        /* \"contracts/Market.sol\":1430:1458  msg.sender != listing.seller */\n      0xffffffffffffffffffffffffffffffffffffffff\n      and\n        /* \"contracts/Market.sol\":1430:1440  msg.sender */\n      caller\n        /* \"contracts/Market.sol\":1430:1458  msg.sender != listing.seller */\n      0xffffffffffffffffffffffffffffffffffffffff\n      and\n      eq\n      iszero\n        /* \"contracts/Market.sol\":1422:1490  require(msg.sender != listing.seller, \"Cannot buy your own listing\") */\n      tag_48\n      jumpi\n      mload(0x40)\n      0x08c379a000000000000000000000000000000000000000000000000000000000\n      dup2\n      mstore\n      0x04\n      add\n      tag_49\n      swap1\n      tag_50\n      jump\t// in\n    tag_49:\n      mload(0x40)\n      dup1\n      swap2\n      sub\n      swap1\n      revert\n    tag_48:\n        /* \"contracts/Market.sol\":1517:1524  listing */\n      dup1\n        /* \"contracts/Market.sol\":1517:1530  listing.price */\n      0x03\n      add\n      sload\n        /* \"contracts/Market.sol\":1504:1513  msg.value */\n      callvalue\n        /* \"contracts/Market.sol\":1504:1530  msg.value >= listing.price */\n      lt\n      iszero\n        /* \"contracts/Market.sol\":1496:1553  require(msg.value >= listing.price, \"Insufficient funds\") */\n      tag_51\n      jumpi\n      mload(0x40)\n      0x08c379a000000000000000000000000000000000000000000000000000000000\n      dup2\n      mstore\n      0x04\n      add\n      tag_52\n      swap1\n      tag_53\n      jump\t// in\n    tag_52:\n      mload(0x40)\n      dup1\n      swap2\n      sub\n      swap1\n      revert\n    tag_51:\n        /* \"contracts/Market.sol\":1568:1575  listing */\n      dup1\n        /* \"contracts/Market.sol\":1568:1581  listing.token */\n      0x00\n      add\n      0x00\n      swap1\n      sload\n      swap1\n      0x0100\n      exp\n      swap1\n      div\n      0xffffffffffffffffffffffffffffffffffffffff\n      and\n        /* \"contracts/Market.sol\":1560:1595  IERC721(listing.token).transferFrom */\n      0xffffffffffffffffffffffffffffffffffffffff\n      and\n      0x23b872dd\n        /* \"contracts/Market.sol\":1611:1615  this */\n      address\n        /* \"contracts/Market.sol\":1624:1634  msg.sender */\n      caller\n        /* \"contracts/Market.sol\":1642:1649  listing */\n      dup5\n        /* \"contracts/Market.sol\":1642:1657  listing.tokenId */\n      0x02\n      add\n      sload\n        /* \"contracts/Market.sol\":1560:1663  IERC721(listing.token).transferFrom(... */\n      mload(0x40)\n      dup5\n      0xffffffff\n      and\n      0xe0\n      shl\n      dup2\n      mstore\n      0x04\n      add\n      tag_54\n      swap4\n      swap3\n      swap2\n      swap1\n      tag_55\n      jump\t// in\n    tag_54:\n      0x00\n      mload(0x40)\n      dup1\n      dup4\n      sub\n      dup2\n      0x00\n      dup8\n      dup1\n      extcodesize\n      iszero\n      dup1\n      iszero\n      tag_56\n      jumpi\n      0x00\n      dup1\n      revert\n    tag_56:\n      pop\n      gas\n      call\n      iszero\n      dup1\n      iszero\n      tag_58\n      jumpi\n      returndatasize\n      0x00\n      dup1\n      returndatacopy\n      revert(0x00, returndatasize)\n    tag_58:\n      pop\n      pop\n      pop\n      pop\n        /* \"contracts/Market.sol\":1677:1684  listing */\n      dup1\n        /* \"contracts/Market.sol\":1677:1691  listing.seller */\n      0x01\n      add\n      0x00\n      swap1\n      sload\n      swap1\n      0x0100\n      exp\n      swap1\n      div\n      0xffffffffffffffffffffffffffffffffffffffff\n      and\n        /* \"contracts/Market.sol\":1669:1701  payable(listing.seller).transfer */\n      0xffffffffffffffffffffffffffffffffffffffff\n      and\n        /* \"contracts/Market.sol\":1669:1716  payable(listing.seller).transfer(listing.price) */\n      0x08fc\n        /* \"contracts/Market.sol\":1702:1709  listing */\n      dup3\n        /* \"contracts/Market.sol\":1702:1715  listing.price */\n      0x03\n      add\n      sload\n        /* \"contracts/Market.sol\":1669:1716  payable(listing.seller).transfer(listing.price) */\n      swap1\n      dup2\n      iszero\n      mul\n      swap1\n      mload(0x40)\n      0x00\n      mload(0x40)\n      dup1\n      dup4\n      sub\n      dup2\n      dup6\n      dup9\n      dup9\n      call\n      swap4\n      pop\n      pop\n      pop\n      pop\n      iszero\n      dup1\n      iszero\n      tag_60\n      jumpi\n      returndatasize\n      0x00\n      dup1\n      returndatacopy\n      revert(0x00, returndatasize)\n    tag_60:\n      pop\n        /* \"contracts/Market.sol\":1728:1854  Sale(... */\n      0xb98b19c2f39a8910882da6b63c2dceedb6e0c627a20418117ee5312e03e0ad22\n        /* \"contracts/Market.sol\":1740:1747  listing */\n      dup2\n        /* \"contracts/Market.sol\":1740:1754  listing.seller */\n      0x01\n      add\n      0x00\n      swap1\n      sload\n      swap1\n      0x0100\n      exp\n      swap1\n      div\n      0xffffffffffffffffffffffffffffffffffffffff\n      and\n        /* \"contracts/Market.sol\":1762:1772  msg.sender */\n      caller\n        /* \"contracts/Market.sol\":1780:1787  listing */\n      dup4\n        /* \"contracts/Market.sol\":1780:1793  listing.token */\n      0x00\n      add\n      0x00\n      swap1\n      sload\n      swap1\n      0x0100\n      exp\n      swap1\n      div\n      0xffffffffffffffffffffffffffffffffffffffff\n      and\n        /* \"contracts/Market.sol\":1801:1808  listing */\n      dup5\n        /* \"contracts/Market.sol\":1801:1816  listing.tokenId */\n      0x02\n      add\n      sload\n        /* \"contracts/Market.sol\":1824:1831  listing */\n      dup6\n        /* \"contracts/Market.sol\":1824:1837  listing.price */\n      0x03\n      add\n      sload\n        /* \"contracts/Market.sol\":1845:1848  _id */\n      dup8\n        /* \"contracts/Market.sol\":1728:1854  Sale(... */\n      mload(0x40)\n      tag_61\n      swap7\n      swap6\n      swap5\n      swap4\n      swap3\n      swap2\n      swap1\n      tag_62\n      jump\t// in\n    tag_61:\n      mload(0x40)\n      dup1\n      swap2\n      sub\n      swap1\n      log1\n        /* \"contracts/Market.sol\":1291:1859  {... */\n      pop\n        /* \"contracts/Market.sol\":1243:1859  function buyToken(uint256 _id) external payable {... */\n      pop\n      jump\t// out\n        /* \"contracts/Market.sol\":1863:2346  function cancel(uint256 _id) public {... */\n    tag_20:\n        /* \"contracts/Market.sol\":1905:1928  Listing storage listing */\n      0x00\n        /* \"contracts/Market.sol\":1931:1939  listings */\n      0x01\n        /* \"contracts/Market.sol\":1931:1944  listings[_id] */\n      0x00\n        /* \"contracts/Market.sol\":1940:1943  _id */\n      dup4\n        /* \"contracts/Market.sol\":1931:1944  listings[_id] */\n      dup2\n      mstore\n      0x20\n      add\n      swap1\n      dup2\n      mstore\n      0x20\n      add\n      0x00\n      keccak256\n        /* \"contracts/Market.sol\":1905:1944  Listing storage listing = listings[_id] */\n      swap1\n      pop\n        /* \"contracts/Market.sol\":1977:1997  ListingStatus.Active */\n      0x00\n        /* \"contracts/Market.sol\":1959:1997  listing.status == ListingStatus.Active */\n      0x02\n      dup2\n      gt\n      iszero\n      tag_64\n      jumpi\n      tag_65\n      tag_37\n      jump\t// in\n    tag_65:\n    tag_64:\n        /* \"contracts/Market.sol\":1959:1966  listing */\n      dup2\n        /* \"contracts/Market.sol\":1959:1973  listing.status */\n      0x04\n      add\n      0x00\n      swap1\n      sload\n      swap1\n      0x0100\n      exp\n      swap1\n      div\n      0xff\n      and\n        /* \"contracts/Market.sol\":1959:1997  listing.status == ListingStatus.Active */\n      0x02\n      dup2\n      gt\n      iszero\n      tag_66\n      jumpi\n      tag_67\n      tag_37\n      jump\t// in\n    tag_67:\n    tag_66:\n      eq\n        /* \"contracts/Market.sol\":1951:2023  require(listing.status == ListingStatus.Active, \"Listing is not active\") */\n      tag_68\n      jumpi\n      mload(0x40)\n      0x08c379a000000000000000000000000000000000000000000000000000000000\n      dup2\n      mstore\n      0x04\n      add\n      tag_69\n      swap1\n      tag_70\n      jump\t// in\n    tag_69:\n      mload(0x40)\n      dup1\n      swap2\n      sub\n      swap1\n      revert\n    tag_68:\n        /* \"contracts/Market.sol\":2058:2065  listing */\n      dup1\n        /* \"contracts/Market.sol\":2058:2072  listing.seller */\n      0x01\n      add\n      0x00\n      swap1\n      sload\n      swap1\n      0x0100\n      exp\n      swap1\n      div\n      0xffffffffffffffffffffffffffffffffffffffff\n      and\n        /* \"contracts/Market.sol\":2044:2072  msg.sender == listing.seller */\n      0xffffffffffffffffffffffffffffffffffffffff\n      and\n        /* \"contracts/Market.sol\":2044:2054  msg.sender */\n      caller\n        /* \"contracts/Market.sol\":2044:2072  msg.sender == listing.seller */\n      0xffffffffffffffffffffffffffffffffffffffff\n      and\n      eq\n        /* \"contracts/Market.sol\":2029:2123  require(... */\n      tag_71\n      jumpi\n      mload(0x40)\n      0x08c379a000000000000000000000000000000000000000000000000000000000\n      dup2\n      mstore\n      0x04\n      add\n      tag_72\n      swap1\n      tag_73\n      jump\t// in\n    tag_72:\n      mload(0x40)\n      dup1\n      swap2\n      sub\n      swap1\n      revert\n    tag_71:\n        /* \"contracts/Market.sol\":2147:2170  ListingStatus.Cancelled */\n      0x02\n        /* \"contracts/Market.sol\":2130:2137  listing */\n      dup2\n        /* \"contracts/Market.sol\":2130:2144  listing.status */\n      0x04\n      add\n      0x00\n        /* \"contracts/Market.sol\":2130:2170  listing.status = ListingStatus.Cancelled */\n      0x0100\n      exp\n      dup2\n      sload\n      dup2\n      0xff\n      mul\n      not\n      and\n      swap1\n      dup4\n      0x02\n      dup2\n      gt\n      iszero\n      tag_74\n      jumpi\n      tag_75\n      tag_37\n      jump\t// in\n    tag_75:\n    tag_74:\n      mul\n      or\n      swap1\n      sstore\n      pop\n        /* \"contracts/Market.sol\":2184:2191  listing */\n      dup1\n        /* \"contracts/Market.sol\":2184:2197  listing.token */\n      0x00\n      add\n      0x00\n      swap1\n      sload\n      swap1\n      0x0100\n      exp\n      swap1\n      div\n      0xffffffffffffffffffffffffffffffffffffffff\n      and\n        /* \"contracts/Market.sol\":2176:2211  IERC721(listing.token).transferFrom */\n      0xffffffffffffffffffffffffffffffffffffffff\n      and\n      0x23b872dd\n        /* \"contracts/Market.sol\":2227:2231  this */\n      address\n        /* \"contracts/Market.sol\":2240:2250  msg.sender */\n      caller\n        /* \"contracts/Market.sol\":2258:2265  listing */\n      dup5\n        /* \"contracts/Market.sol\":2258:2273  listing.tokenId */\n      0x02\n      add\n      sload\n        /* \"contracts/Market.sol\":2176:2279  IERC721(listing.token).transferFrom(... */\n      mload(0x40)\n      dup5\n      0xffffffff\n      and\n      0xe0\n      shl\n      dup2\n      mstore\n      0x04\n      add\n      tag_76\n      swap4\n      swap3\n      swap2\n      swap1\n      tag_55\n      jump\t// in\n    tag_76:\n      0x00\n      mload(0x40)\n      dup1\n      dup4\n      sub\n      dup2\n      0x00\n      dup8\n      dup1\n      extcodesize\n      iszero\n      dup1\n      iszero\n      tag_77\n      jumpi\n      0x00\n      dup1\n      revert\n    tag_77:\n      pop\n      gas\n      call\n      iszero\n      dup1\n      iszero\n      tag_79\n      jumpi\n      returndatasize\n      0x00\n      dup1\n      returndatacopy\n      revert(0x00, returndatasize)\n    tag_79:\n      pop\n      pop\n      pop\n      pop\n        /* \"contracts/Market.sol\":2291:2341  Cancel(msg.sender, listing.token, listing.tokenId) */\n      0x977ca88fbe72d930c467bb5e513bf5120fa044293ebf66e5deb33354c612c9fb\n        /* \"contracts/Market.sol\":2298:2308  msg.sender */\n      caller\n        /* \"contracts/Market.sol\":2310:2317  listing */\n      dup3\n        /* \"contracts/Market.sol\":2310:2323  listing.token */\n      0x00\n      add\n      0x00\n      swap1\n      sload\n      swap1\n      0x0100\n      exp\n      swap1\n      div\n      0xffffffffffffffffffffffffffffffffffffffff\n      and\n        /* \"contracts/Market.sol\":2325:2332  listing */\n      dup4\n        /* \"contracts/Market.sol\":2325:2340  listing.tokenId */\n      0x02\n      add\n      sload\n        /* \"contracts/Market.sol\":2291:2341  Cancel(msg.sender, listing.token, listing.tokenId) */\n      mload(0x40)\n      tag_80\n      swap4\n      swap3\n      swap2\n      swap1\n      tag_55\n      jump\t// in\n    tag_80:\n      mload(0x40)\n      dup1\n      swap2\n      sub\n      swap1\n      log1\n        /* \"contracts/Market.sol\":1899:2346  {... */\n      pop\n        /* \"contracts/Market.sol\":1863:2346  function cancel(uint256 _id) public {... */\n      pop\n      jump\t// out\n        /* \"contracts/Market.sol\":847:1239  function listToken(... */\n    tag_25:\n        /* \"contracts/Market.sol\":950:956  _token */\n      dup3\n        /* \"contracts/Market.sol\":942:970  IERC721(_token).transferFrom */\n      0xffffffffffffffffffffffffffffffffffffffff\n      and\n      0x23b872dd\n        /* \"contracts/Market.sol\":971:981  msg.sender */\n      caller\n        /* \"contracts/Market.sol\":991:995  this */\n      address\n        /* \"contracts/Market.sol\":998:1001  _id */\n      dup6\n        /* \"contracts/Market.sol\":942:1002  IERC721(_token).transferFrom(msg.sender, address(this), _id) */\n      mload(0x40)\n      dup5\n      0xffffffff\n      and\n      0xe0\n      shl\n      dup2\n      mstore\n      0x04\n      add\n      tag_82\n      swap4\n      swap3\n      swap2\n      swap1\n      tag_55\n      jump\t// in\n    tag_82:\n      0x00\n      mload(0x40)\n      dup1\n      dup4\n      sub\n      dup2\n      0x00\n      dup8\n      dup1\n      extcodesize\n      iszero\n      dup1\n      iszero\n      tag_83\n      jumpi\n      0x00\n      dup1\n      revert\n    tag_83:\n      pop\n      gas\n      call\n      iszero\n      dup1\n      iszero\n      tag_85\n      jumpi\n      returndatasize\n      0x00\n      dup1\n      returndatacopy\n      revert(0x00, returndatasize)\n    tag_85:\n      pop\n      pop\n      pop\n      pop\n        /* \"contracts/Market.sol\":1009:1031  Listing memory listing */\n      0x00\n        /* \"contracts/Market.sol\":1034:1132  Listing(... */\n      mload(0x40)\n      dup1\n      0xa0\n      add\n      0x40\n      mstore\n      dup1\n        /* \"contracts/Market.sol\":1049:1055  _token */\n      dup6\n        /* \"contracts/Market.sol\":1034:1132  Listing(... */\n      0xffffffffffffffffffffffffffffffffffffffff\n      and\n      dup2\n      mstore\n      0x20\n      add\n        /* \"contracts/Market.sol\":1063:1073  msg.sender */\n      caller\n        /* \"contracts/Market.sol\":1034:1132  Listing(... */\n      0xffffffffffffffffffffffffffffffffffffffff\n      and\n      dup2\n      mstore\n      0x20\n      add\n        /* \"contracts/Market.sol\":1081:1084  _id */\n      dup5\n        /* \"contracts/Market.sol\":1034:1132  Listing(... */\n      dup2\n      mstore\n      0x20\n      add\n        /* \"contracts/Market.sol\":1092:1098  _price */\n      dup4\n        /* \"contracts/Market.sol\":1034:1132  Listing(... */\n      dup2\n      mstore\n      0x20\n      add\n        /* \"contracts/Market.sol\":1106:1126  ListingStatus.Active */\n      0x00\n        /* \"contracts/Market.sol\":1034:1132  Listing(... */\n      0x02\n      dup2\n      gt\n      iszero\n      tag_86\n      jumpi\n      tag_87\n      tag_37\n      jump\t// in\n    tag_87:\n    tag_86:\n      dup2\n      mstore\n      pop\n        /* \"contracts/Market.sol\":1009:1132  Listing memory listing = Listing(... */\n      swap1\n      pop\n        /* \"contracts/Market.sol\":1164:1171  listing */\n      dup1\n        /* \"contracts/Market.sol\":1139:1147  listings */\n      0x01\n        /* \"contracts/Market.sol\":1139:1161  listings[_listingId++] */\n      0x00\n        /* \"contracts/Market.sol\":1148:1158  _listingId */\n      dup1\n      0x00\n        /* \"contracts/Market.sol\":1148:1160  _listingId++ */\n      dup2\n      sload\n      dup1\n      swap3\n      swap2\n      swap1\n      tag_88\n      swap1\n      tag_89\n      jump\t// in\n    tag_88:\n      swap2\n      swap1\n      pop\n      sstore\n        /* \"contracts/Market.sol\":1139:1161  listings[_listingId++] */\n      dup2\n      mstore\n      0x20\n      add\n      swap1\n      dup2\n      mstore\n      0x20\n      add\n      0x00\n      keccak256\n        /* \"contracts/Market.sol\":1139:1171  listings[_listingId++] = listing */\n      0x00\n      dup3\n      add\n      mload\n      dup2\n      0x00\n      add\n      exp(0x0100, 0x00)\n      dup2\n      sload\n      dup2\n      0xffffffffffffffffffffffffffffffffffffffff\n      mul\n      not\n      and\n      swap1\n      dup4\n      0xffffffffffffffffffffffffffffffffffffffff\n      and\n      mul\n      or\n      swap1\n      sstore\n      pop\n      0x20\n      dup3\n      add\n      mload\n      dup2\n      0x01\n      add\n      exp(0x0100, 0x00)\n      dup2\n      sload\n      dup2\n      0xffffffffffffffffffffffffffffffffffffffff\n      mul\n      not\n      and\n      swap1\n      dup4\n      0xffffffffffffffffffffffffffffffffffffffff\n      and\n      mul\n      or\n      swap1\n      sstore\n      pop\n      0x40\n      dup3\n      add\n      mload\n      dup2\n      0x02\n      add\n      sstore\n      0x60\n      dup3\n      add\n      mload\n      dup2\n      0x03\n      add\n      sstore\n      0x80\n      dup3\n      add\n      mload\n      dup2\n      0x04\n      add\n      exp(0x0100, 0x00)\n      dup2\n      sload\n      dup2\n      0xff\n      mul\n      not\n      and\n      swap1\n      dup4\n      0x02\n      dup2\n      gt\n      iszero\n      tag_90\n      jumpi\n      tag_91\n      tag_37\n      jump\t// in\n    tag_91:\n    tag_90:\n      mul\n      or\n      swap1\n      sstore\n      pop\n      swap1\n      pop\n      pop\n        /* \"contracts/Market.sol\":1183:1234  Listed(msg.sender, _token, _id, _price, _listingId) */\n      0xabfb5edcb4ca5ae4ac3d101f5e471e4bd364ff2a111db101f887c2d45737e331\n        /* \"contracts/Market.sol\":1190:1200  msg.sender */\n      caller\n        /* \"contracts/Market.sol\":1202:1208  _token */\n      dup6\n        /* \"contracts/Market.sol\":1210:1213  _id */\n      dup6\n        /* \"contracts/Market.sol\":1215:1221  _price */\n      dup6\n        /* \"contracts/Market.sol\":1223:1233  _listingId */\n      sload(0x00)\n        /* \"contracts/Market.sol\":1183:1234  Listed(msg.sender, _token, _id, _price, _listingId) */\n      mload(0x40)\n      tag_92\n      swap6\n      swap5\n      swap4\n      swap3\n      swap2\n      swap1\n      tag_93\n      jump\t// in\n    tag_92:\n      mload(0x40)\n      dup1\n      swap2\n      sub\n      swap1\n      log1\n        /* \"contracts/Market.sol\":936:1239  {... */\n      pop\n        /* \"contracts/Market.sol\":847:1239  function listToken(... */\n      pop\n      pop\n      pop\n      jump\t// out\n        /* \"contracts/Market.sol\":692:735  mapping(uint256 => Listing) public listings */\n    tag_29:\n      mstore(0x20, 0x01)\n      dup1\n      0x00\n      mstore\n      keccak256(0x00, 0x40)\n      0x00\n      swap2\n      pop\n      swap1\n      pop\n      dup1\n      0x00\n      add\n      0x00\n      swap1\n      sload\n      swap1\n      0x0100\n      exp\n      swap1\n      div\n      0xffffffffffffffffffffffffffffffffffffffff\n      and\n      swap1\n      dup1\n      0x01\n      add\n      0x00\n      swap1\n      sload\n      swap1\n      0x0100\n      exp\n      swap1\n      div\n      0xffffffffffffffffffffffffffffffffffffffff\n      and\n      swap1\n      dup1\n      0x02\n      add\n      sload\n      swap1\n      dup1\n      0x03\n      add\n      sload\n      swap1\n      dup1\n      0x04\n      add\n      0x00\n      swap1\n      sload\n      swap1\n      0x0100\n      exp\n      swap1\n      div\n      0xff\n      and\n      swap1\n      pop\n      dup6\n      jump\t// out\n    tag_33:\n      mload(0x40)\n      dup1\n      0xa0\n      add\n      0x40\n      mstore\n      dup1\n      and(0xffffffffffffffffffffffffffffffffffffffff, 0x00)\n      dup2\n      mstore\n      0x20\n      add\n      and(0xffffffffffffffffffffffffffffffffffffffff, 0x00)\n      dup2\n      mstore\n      0x20\n      add\n      0x00\n      dup2\n      mstore\n      0x20\n      add\n      0x00\n      dup2\n      mstore\n      0x20\n      add\n      0x00\n      0x02\n      dup2\n      gt\n      iszero\n      tag_94\n      jumpi\n      tag_95\n      tag_37\n      jump\t// in\n    tag_95:\n    tag_94:\n      dup2\n      mstore\n      pop\n      swap1\n      jump\t// out\n        /* \"#utility.yul\":7:146   */\n    tag_97:\n        /* \"#utility.yul\":53:58   */\n      0x00\n        /* \"#utility.yul\":91:97   */\n      dup2\n        /* \"#utility.yul\":78:98   */\n      calldataload\n        /* \"#utility.yul\":69:98   */\n      swap1\n      pop\n        /* \"#utility.yul\":107:140   */\n      tag_99\n        /* \"#utility.yul\":134:139   */\n      dup2\n        /* \"#utility.yul\":107:140   */\n      tag_100\n      jump\t// in\n    tag_99:\n        /* \"#utility.yul\":7:146   */\n      swap3\n      swap2\n      pop\n      pop\n      jump\t// out\n        /* \"#utility.yul\":152:291   */\n    tag_101:\n        /* \"#utility.yul\":198:203   */\n      0x00\n        /* \"#utility.yul\":236:242   */\n      dup2\n        /* \"#utility.yul\":223:243   */\n      calldataload\n        /* \"#utility.yul\":214:243   */\n      swap1\n      pop\n        /* \"#utility.yul\":252:285   */\n      tag_103\n        /* \"#utility.yul\":279:284   */\n      dup2\n        /* \"#utility.yul\":252:285   */\n      tag_104\n      jump\t// in\n    tag_103:\n        /* \"#utility.yul\":152:291   */\n      swap3\n      swap2\n      pop\n      pop\n      jump\t// out\n        /* \"#utility.yul\":297:916   */\n    tag_24:\n        /* \"#utility.yul\":374:380   */\n      0x00\n        /* \"#utility.yul\":382:388   */\n      dup1\n        /* \"#utility.yul\":390:396   */\n      0x00\n        /* \"#utility.yul\":439:441   */\n      0x60\n        /* \"#utility.yul\":427:436   */\n      dup5\n        /* \"#utility.yul\":418:425   */\n      dup7\n        /* \"#utility.yul\":414:437   */\n      sub\n        /* \"#utility.yul\":410:442   */\n      slt\n        /* \"#utility.yul\":407:526   */\n      iszero\n      tag_106\n      jumpi\n        /* \"#utility.yul\":445:524   */\n      tag_107\n      tag_108\n      jump\t// in\n    tag_107:\n        /* \"#utility.yul\":407:526   */\n    tag_106:\n        /* \"#utility.yul\":565:566   */\n      0x00\n        /* \"#utility.yul\":590:643   */\n      tag_109\n        /* \"#utility.yul\":635:642   */\n      dup7\n        /* \"#utility.yul\":626:632   */\n      dup3\n        /* \"#utility.yul\":615:624   */\n      dup8\n        /* \"#utility.yul\":611:633   */\n      add\n        /* \"#utility.yul\":590:643   */\n      tag_97\n      jump\t// in\n    tag_109:\n        /* \"#utility.yul\":580:643   */\n      swap4\n      pop\n        /* \"#utility.yul\":536:653   */\n      pop\n        /* \"#utility.yul\":692:694   */\n      0x20\n        /* \"#utility.yul\":718:771   */\n      tag_110\n        /* \"#utility.yul\":763:770   */\n      dup7\n        /* \"#utility.yul\":754:760   */\n      dup3\n        /* \"#utility.yul\":743:752   */\n      dup8\n        /* \"#utility.yul\":739:761   */\n      add\n        /* \"#utility.yul\":718:771   */\n      tag_101\n      jump\t// in\n    tag_110:\n        /* \"#utility.yul\":708:771   */\n      swap3\n      pop\n        /* \"#utility.yul\":663:781   */\n      pop\n        /* \"#utility.yul\":820:822   */\n      0x40\n        /* \"#utility.yul\":846:899   */\n      tag_111\n        /* \"#utility.yul\":891:898   */\n      dup7\n        /* \"#utility.yul\":882:888   */\n      dup3\n        /* \"#utility.yul\":871:880   */\n      dup8\n        /* \"#utility.yul\":867:889   */\n      add\n        /* \"#utility.yul\":846:899   */\n      tag_101\n      jump\t// in\n    tag_111:\n        /* \"#utility.yul\":836:899   */\n      swap2\n      pop\n        /* \"#utility.yul\":791:909   */\n      pop\n        /* \"#utility.yul\":297:916   */\n      swap3\n      pop\n      swap3\n      pop\n      swap3\n      jump\t// out\n        /* \"#utility.yul\":922:1251   */\n    tag_10:\n        /* \"#utility.yul\":981:987   */\n      0x00\n        /* \"#utility.yul\":1030:1032   */\n      0x20\n        /* \"#utility.yul\":1018:1027   */\n      dup3\n        /* \"#utility.yul\":1009:1016   */\n      dup5\n        /* \"#utility.yul\":1005:1028   */\n      sub\n        /* \"#utility.yul\":1001:1033   */\n      slt\n        /* \"#utility.yul\":998:1117   */\n      iszero\n      tag_113\n      jumpi\n        /* \"#utility.yul\":1036:1115   */\n      tag_114\n      tag_108\n      jump\t// in\n    tag_114:\n        /* \"#utility.yul\":998:1117   */\n    tag_113:\n        /* \"#utility.yul\":1156:1157   */\n      0x00\n        /* \"#utility.yul\":1181:1234   */\n      tag_115\n        /* \"#utility.yul\":1226:1233   */\n      dup5\n        /* \"#utility.yul\":1217:1223   */\n      dup3\n        /* \"#utility.yul\":1206:1215   */\n      dup6\n        /* \"#utility.yul\":1202:1224   */\n      add\n        /* \"#utility.yul\":1181:1234   */\n      tag_101\n      jump\t// in\n    tag_115:\n        /* \"#utility.yul\":1171:1234   */\n      swap2\n      pop\n        /* \"#utility.yul\":1127:1244   */\n      pop\n        /* \"#utility.yul\":922:1251   */\n      swap3\n      swap2\n      pop\n      pop\n      jump\t// out\n        /* \"#utility.yul\":1257:1365   */\n    tag_116:\n        /* \"#utility.yul\":1334:1358   */\n      tag_118\n        /* \"#utility.yul\":1352:1357   */\n      dup2\n        /* \"#utility.yul\":1334:1358   */\n      tag_119\n      jump\t// in\n    tag_118:\n        /* \"#utility.yul\":1329:1332   */\n      dup3\n        /* \"#utility.yul\":1322:1359   */\n      mstore\n        /* \"#utility.yul\":1257:1365   */\n      pop\n      pop\n      jump\t// out\n        /* \"#utility.yul\":1371:1489   */\n    tag_120:\n        /* \"#utility.yul\":1458:1482   */\n      tag_122\n        /* \"#utility.yul\":1476:1481   */\n      dup2\n        /* \"#utility.yul\":1458:1482   */\n      tag_119\n      jump\t// in\n    tag_122:\n        /* \"#utility.yul\":1453:1456   */\n      dup3\n        /* \"#utility.yul\":1446:1483   */\n      mstore\n        /* \"#utility.yul\":1371:1489   */\n      pop\n      pop\n      jump\t// out\n        /* \"#utility.yul\":1495:1646   */\n    tag_123:\n        /* \"#utility.yul\":1587:1639   */\n      tag_125\n        /* \"#utility.yul\":1633:1638   */\n      dup2\n        /* \"#utility.yul\":1587:1639   */\n      tag_126\n      jump\t// in\n    tag_125:\n        /* \"#utility.yul\":1582:1585   */\n      dup3\n        /* \"#utility.yul\":1575:1640   */\n      mstore\n        /* \"#utility.yul\":1495:1646   */\n      pop\n      pop\n      jump\t// out\n        /* \"#utility.yul\":1652:1813   */\n    tag_127:\n        /* \"#utility.yul\":1754:1806   */\n      tag_129\n        /* \"#utility.yul\":1800:1805   */\n      dup2\n        /* \"#utility.yul\":1754:1806   */\n      tag_126\n      jump\t// in\n    tag_129:\n        /* \"#utility.yul\":1749:1752   */\n      dup3\n        /* \"#utility.yul\":1742:1807   */\n      mstore\n        /* \"#utility.yul\":1652:1813   */\n      pop\n      pop\n      jump\t// out\n        /* \"#utility.yul\":1819:2185   */\n    tag_130:\n        /* \"#utility.yul\":1961:1964   */\n      0x00\n        /* \"#utility.yul\":1982:2049   */\n      tag_132\n        /* \"#utility.yul\":2046:2048   */\n      0x16\n        /* \"#utility.yul\":2041:2044   */\n      dup4\n        /* \"#utility.yul\":1982:2049   */\n      tag_133\n      jump\t// in\n    tag_132:\n        /* \"#utility.yul\":1975:2049   */\n      swap2\n      pop\n        /* \"#utility.yul\":2058:2151   */\n      tag_134\n        /* \"#utility.yul\":2147:2150   */\n      dup3\n        /* \"#utility.yul\":2058:2151   */\n      tag_135\n      jump\t// in\n    tag_134:\n        /* \"#utility.yul\":2176:2178   */\n      0x20\n        /* \"#utility.yul\":2171:2174   */\n      dup3\n        /* \"#utility.yul\":2167:2179   */\n      add\n        /* \"#utility.yul\":2160:2179   */\n      swap1\n      pop\n        /* \"#utility.yul\":1819:2185   */\n      swap2\n      swap1\n      pop\n      jump\t// out\n        /* \"#utility.yul\":2191:2557   */\n    tag_136:\n        /* \"#utility.yul\":2333:2336   */\n      0x00\n        /* \"#utility.yul\":2354:2421   */\n      tag_138\n        /* \"#utility.yul\":2418:2420   */\n      0x12\n        /* \"#utility.yul\":2413:2416   */\n      dup4\n        /* \"#utility.yul\":2354:2421   */\n      tag_133\n      jump\t// in\n    tag_138:\n        /* \"#utility.yul\":2347:2421   */\n      swap2\n      pop\n        /* \"#utility.yul\":2430:2523   */\n      tag_139\n        /* \"#utility.yul\":2519:2522   */\n      dup3\n        /* \"#utility.yul\":2430:2523   */\n      tag_140\n      jump\t// in\n    tag_139:\n        /* \"#utility.yul\":2548:2550   */\n      0x20\n        /* \"#utility.yul\":2543:2546   */\n      dup3\n        /* \"#utility.yul\":2539:2551   */\n      add\n        /* \"#utility.yul\":2532:2551   */\n      swap1\n      pop\n        /* \"#utility.yul\":2191:2557   */\n      swap2\n      swap1\n      pop\n      jump\t// out\n        /* \"#utility.yul\":2563:2929   */\n    tag_141:\n        /* \"#utility.yul\":2705:2708   */\n      0x00\n        /* \"#utility.yul\":2726:2793   */\n      tag_143\n        /* \"#utility.yul\":2790:2792   */\n      0x15\n        /* \"#utility.yul\":2785:2788   */\n      dup4\n        /* \"#utility.yul\":2726:2793   */\n      tag_133\n      jump\t// in\n    tag_143:\n        /* \"#utility.yul\":2719:2793   */\n      swap2\n      pop\n        /* \"#utility.yul\":2802:2895   */\n      tag_144\n        /* \"#utility.yul\":2891:2894   */\n      dup3\n        /* \"#utility.yul\":2802:2895   */\n      tag_145\n      jump\t// in\n    tag_144:\n        /* \"#utility.yul\":2920:2922   */\n      0x20\n        /* \"#utility.yul\":2915:2918   */\n      dup3\n        /* \"#utility.yul\":2911:2923   */\n      add\n        /* \"#utility.yul\":2904:2923   */\n      swap1\n      pop\n        /* \"#utility.yul\":2563:2929   */\n      swap2\n      swap1\n      pop\n      jump\t// out\n        /* \"#utility.yul\":2935:3301   */\n    tag_146:\n        /* \"#utility.yul\":3077:3080   */\n      0x00\n        /* \"#utility.yul\":3098:3165   */\n      tag_148\n        /* \"#utility.yul\":3162:3164   */\n      0x23\n        /* \"#utility.yul\":3157:3160   */\n      dup4\n        /* \"#utility.yul\":3098:3165   */\n      tag_133\n      jump\t// in\n    tag_148:\n        /* \"#utility.yul\":3091:3165   */\n      swap2\n      pop\n        /* \"#utility.yul\":3174:3267   */\n      tag_149\n        /* \"#utility.yul\":3263:3266   */\n      dup3\n        /* \"#utility.yul\":3174:3267   */\n      tag_150\n      jump\t// in\n    tag_149:\n        /* \"#utility.yul\":3292:3294   */\n      0x40\n        /* \"#utility.yul\":3287:3290   */\n      dup3\n        /* \"#utility.yul\":3283:3295   */\n      add\n        /* \"#utility.yul\":3276:3295   */\n      swap1\n      pop\n        /* \"#utility.yul\":2935:3301   */\n      swap2\n      swap1\n      pop\n      jump\t// out\n        /* \"#utility.yul\":3307:3673   */\n    tag_151:\n        /* \"#utility.yul\":3449:3452   */\n      0x00\n        /* \"#utility.yul\":3470:3537   */\n      tag_153\n        /* \"#utility.yul\":3534:3536   */\n      0x1b\n        /* \"#utility.yul\":3529:3532   */\n      dup4\n        /* \"#utility.yul\":3470:3537   */\n      tag_133\n      jump\t// in\n    tag_153:\n        /* \"#utility.yul\":3463:3537   */\n      swap2\n      pop\n        /* \"#utility.yul\":3546:3639   */\n      tag_154\n        /* \"#utility.yul\":3635:3638   */\n      dup3\n        /* \"#utility.yul\":3546:3639   */\n      tag_155\n      jump\t// in\n    tag_154:\n        /* \"#utility.yul\":3664:3666   */\n      0x20\n        /* \"#utility.yul\":3659:3662   */\n      dup3\n        /* \"#utility.yul\":3655:3667   */\n      add\n        /* \"#utility.yul\":3648:3667   */\n      swap1\n      pop\n        /* \"#utility.yul\":3307:3673   */\n      swap2\n      swap1\n      pop\n      jump\t// out\n        /* \"#utility.yul\":3733:4784   */\n    tag_156:\n        /* \"#utility.yul\":3878:3882   */\n      0xa0\n        /* \"#utility.yul\":3873:3876   */\n      dup3\n        /* \"#utility.yul\":3869:3883   */\n      add\n        /* \"#utility.yul\":3966:3970   */\n      0x00\n        /* \"#utility.yul\":3959:3964   */\n      dup3\n        /* \"#utility.yul\":3955:3971   */\n      add\n        /* \"#utility.yul\":3949:3972   */\n      mload\n        /* \"#utility.yul\":3985:4048   */\n      tag_158\n        /* \"#utility.yul\":4042:4046   */\n      0x00\n        /* \"#utility.yul\":4037:4040   */\n      dup6\n        /* \"#utility.yul\":4033:4047   */\n      add\n        /* \"#utility.yul\":4019:4031   */\n      dup3\n        /* \"#utility.yul\":3985:4048   */\n      tag_116\n      jump\t// in\n    tag_158:\n        /* \"#utility.yul\":3893:4058   */\n      pop\n        /* \"#utility.yul\":4142:4146   */\n      0x20\n        /* \"#utility.yul\":4135:4140   */\n      dup3\n        /* \"#utility.yul\":4131:4147   */\n      add\n        /* \"#utility.yul\":4125:4148   */\n      mload\n        /* \"#utility.yul\":4161:4224   */\n      tag_159\n        /* \"#utility.yul\":4218:4222   */\n      0x20\n        /* \"#utility.yul\":4213:4216   */\n      dup6\n        /* \"#utility.yul\":4209:4223   */\n      add\n        /* \"#utility.yul\":4195:4207   */\n      dup3\n        /* \"#utility.yul\":4161:4224   */\n      tag_116\n      jump\t// in\n    tag_159:\n        /* \"#utility.yul\":4068:4234   */\n      pop\n        /* \"#utility.yul\":4319:4323   */\n      0x40\n        /* \"#utility.yul\":4312:4317   */\n      dup3\n        /* \"#utility.yul\":4308:4324   */\n      add\n        /* \"#utility.yul\":4302:4325   */\n      mload\n        /* \"#utility.yul\":4338:4401   */\n      tag_160\n        /* \"#utility.yul\":4395:4399   */\n      0x40\n        /* \"#utility.yul\":4390:4393   */\n      dup6\n        /* \"#utility.yul\":4386:4400   */\n      add\n        /* \"#utility.yul\":4372:4384   */\n      dup3\n        /* \"#utility.yul\":4338:4401   */\n      tag_161\n      jump\t// in\n    tag_160:\n        /* \"#utility.yul\":4244:4411   */\n      pop\n        /* \"#utility.yul\":4494:4498   */\n      0x60\n        /* \"#utility.yul\":4487:4492   */\n      dup3\n        /* \"#utility.yul\":4483:4499   */\n      add\n        /* \"#utility.yul\":4477:4500   */\n      mload\n        /* \"#utility.yul\":4513:4576   */\n      tag_162\n        /* \"#utility.yul\":4570:4574   */\n      0x60\n        /* \"#utility.yul\":4565:4568   */\n      dup6\n        /* \"#utility.yul\":4561:4575   */\n      add\n        /* \"#utility.yul\":4547:4559   */\n      dup3\n        /* \"#utility.yul\":4513:4576   */\n      tag_161\n      jump\t// in\n    tag_162:\n        /* \"#utility.yul\":4421:4586   */\n      pop\n        /* \"#utility.yul\":4670:4674   */\n      0x80\n        /* \"#utility.yul\":4663:4668   */\n      dup3\n        /* \"#utility.yul\":4659:4675   */\n      add\n        /* \"#utility.yul\":4653:4676   */\n      mload\n        /* \"#utility.yul\":4689:4767   */\n      tag_163\n        /* \"#utility.yul\":4761:4765   */\n      0x80\n        /* \"#utility.yul\":4756:4759   */\n      dup6\n        /* \"#utility.yul\":4752:4766   */\n      add\n        /* \"#utility.yul\":4738:4750   */\n      dup3\n        /* \"#utility.yul\":4689:4767   */\n      tag_123\n      jump\t// in\n    tag_163:\n        /* \"#utility.yul\":4596:4777   */\n      pop\n        /* \"#utility.yul\":3847:4784   */\n      pop\n        /* \"#utility.yul\":3733:4784   */\n      pop\n      pop\n      jump\t// out\n        /* \"#utility.yul\":4790:4898   */\n    tag_161:\n        /* \"#utility.yul\":4867:4891   */\n      tag_165\n        /* \"#utility.yul\":4885:4890   */\n      dup2\n        /* \"#utility.yul\":4867:4891   */\n      tag_166\n      jump\t// in\n    tag_165:\n        /* \"#utility.yul\":4862:4865   */\n      dup3\n        /* \"#utility.yul\":4855:4892   */\n      mstore\n        /* \"#utility.yul\":4790:4898   */\n      pop\n      pop\n      jump\t// out\n        /* \"#utility.yul\":4904:5022   */\n    tag_167:\n        /* \"#utility.yul\":4991:5015   */\n      tag_169\n        /* \"#utility.yul\":5009:5014   */\n      dup2\n        /* \"#utility.yul\":4991:5015   */\n      tag_166\n      jump\t// in\n    tag_169:\n        /* \"#utility.yul\":4986:4989   */\n      dup3\n        /* \"#utility.yul\":4979:5016   */\n      mstore\n        /* \"#utility.yul\":4904:5022   */\n      pop\n      pop\n      jump\t// out\n        /* \"#utility.yul\":5028:5803   */\n    tag_62:\n        /* \"#utility.yul\":5261:5265   */\n      0x00\n        /* \"#utility.yul\":5299:5302   */\n      0xc0\n        /* \"#utility.yul\":5288:5297   */\n      dup3\n        /* \"#utility.yul\":5284:5303   */\n      add\n        /* \"#utility.yul\":5276:5303   */\n      swap1\n      pop\n        /* \"#utility.yul\":5313:5384   */\n      tag_171\n        /* \"#utility.yul\":5381:5382   */\n      0x00\n        /* \"#utility.yul\":5370:5379   */\n      dup4\n        /* \"#utility.yul\":5366:5383   */\n      add\n        /* \"#utility.yul\":5357:5363   */\n      dup10\n        /* \"#utility.yul\":5313:5384   */\n      tag_120\n      jump\t// in\n    tag_171:\n        /* \"#utility.yul\":5394:5466   */\n      tag_172\n        /* \"#utility.yul\":5462:5464   */\n      0x20\n        /* \"#utility.yul\":5451:5460   */\n      dup4\n        /* \"#utility.yul\":5447:5465   */\n      add\n        /* \"#utility.yul\":5438:5444   */\n      dup9\n        /* \"#utility.yul\":5394:5466   */\n      tag_120\n      jump\t// in\n    tag_172:\n        /* \"#utility.yul\":5476:5548   */\n      tag_173\n        /* \"#utility.yul\":5544:5546   */\n      0x40\n        /* \"#utility.yul\":5533:5542   */\n      dup4\n        /* \"#utility.yul\":5529:5547   */\n      add\n        /* \"#utility.yul\":5520:5526   */\n      dup8\n        /* \"#utility.yul\":5476:5548   */\n      tag_120\n      jump\t// in\n    tag_173:\n        /* \"#utility.yul\":5558:5630   */\n      tag_174\n        /* \"#utility.yul\":5626:5628   */\n      0x60\n        /* \"#utility.yul\":5615:5624   */\n      dup4\n        /* \"#utility.yul\":5611:5629   */\n      add\n        /* \"#utility.yul\":5602:5608   */\n      dup7\n        /* \"#utility.yul\":5558:5630   */\n      tag_167\n      jump\t// in\n    tag_174:\n        /* \"#utility.yul\":5640:5713   */\n      tag_175\n        /* \"#utility.yul\":5708:5711   */\n      0x80\n        /* \"#utility.yul\":5697:5706   */\n      dup4\n        /* \"#utility.yul\":5693:5712   */\n      add\n        /* \"#utility.yul\":5684:5690   */\n      dup6\n        /* \"#utility.yul\":5640:5713   */\n      tag_167\n      jump\t// in\n    tag_175:\n        /* \"#utility.yul\":5723:5796   */\n      tag_176\n        /* \"#utility.yul\":5791:5794   */\n      0xa0\n        /* \"#utility.yul\":5780:5789   */\n      dup4\n        /* \"#utility.yul\":5776:5795   */\n      add\n        /* \"#utility.yul\":5767:5773   */\n      dup5\n        /* \"#utility.yul\":5723:5796   */\n      tag_167\n      jump\t// in\n    tag_176:\n        /* \"#utility.yul\":5028:5803   */\n      swap8\n      swap7\n      pop\n      pop\n      pop\n      pop\n      pop\n      pop\n      pop\n      jump\t// out\n        /* \"#utility.yul\":5809:6251   */\n    tag_55:\n        /* \"#utility.yul\":5958:5962   */\n      0x00\n        /* \"#utility.yul\":5996:5998   */\n      0x60\n        /* \"#utility.yul\":5985:5994   */\n      dup3\n        /* \"#utility.yul\":5981:5999   */\n      add\n        /* \"#utility.yul\":5973:5999   */\n      swap1\n      pop\n        /* \"#utility.yul\":6009:6080   */\n      tag_178\n        /* \"#utility.yul\":6077:6078   */\n      0x00\n        /* \"#utility.yul\":6066:6075   */\n      dup4\n        /* \"#utility.yul\":6062:6079   */\n      add\n        /* \"#utility.yul\":6053:6059   */\n      dup7\n        /* \"#utility.yul\":6009:6080   */\n      tag_120\n      jump\t// in\n    tag_178:\n        /* \"#utility.yul\":6090:6162   */\n      tag_179\n        /* \"#utility.yul\":6158:6160   */\n      0x20\n        /* \"#utility.yul\":6147:6156   */\n      dup4\n        /* \"#utility.yul\":6143:6161   */\n      add\n        /* \"#utility.yul\":6134:6140   */\n      dup6\n        /* \"#utility.yul\":6090:6162   */\n      tag_120\n      jump\t// in\n    tag_179:\n        /* \"#utility.yul\":6172:6244   */\n      tag_180\n        /* \"#utility.yul\":6240:6242   */\n      0x40\n        /* \"#utility.yul\":6229:6238   */\n      dup4\n        /* \"#utility.yul\":6225:6243   */\n      add\n        /* \"#utility.yul\":6216:6222   */\n      dup5\n        /* \"#utility.yul\":6172:6244   */\n      tag_167\n      jump\t// in\n    tag_180:\n        /* \"#utility.yul\":5809:6251   */\n      swap5\n      swap4\n      pop\n      pop\n      pop\n      pop\n      jump\t// out\n        /* \"#utility.yul\":6257:6951   */\n    tag_31:\n        /* \"#utility.yul\":6477:6481   */\n      0x00\n        /* \"#utility.yul\":6515:6518   */\n      0xa0\n        /* \"#utility.yul\":6504:6513   */\n      dup3\n        /* \"#utility.yul\":6500:6519   */\n      add\n        /* \"#utility.yul\":6492:6519   */\n      swap1\n      pop\n        /* \"#utility.yul\":6529:6600   */\n      tag_182\n        /* \"#utility.yul\":6597:6598   */\n      0x00\n        /* \"#utility.yul\":6586:6595   */\n      dup4\n        /* \"#utility.yul\":6582:6599   */\n      add\n        /* \"#utility.yul\":6573:6579   */\n      dup9\n        /* \"#utility.yul\":6529:6600   */\n      tag_120\n      jump\t// in\n    tag_182:\n        /* \"#utility.yul\":6610:6682   */\n      tag_183\n        /* \"#utility.yul\":6678:6680   */\n      0x20\n        /* \"#utility.yul\":6667:6676   */\n      dup4\n        /* \"#utility.yul\":6663:6681   */\n      add\n        /* \"#utility.yul\":6654:6660   */\n      dup8\n        /* \"#utility.yul\":6610:6682   */\n      tag_120\n      jump\t// in\n    tag_183:\n        /* \"#utility.yul\":6692:6764   */\n      tag_184\n        /* \"#utility.yul\":6760:6762   */\n      0x40\n        /* \"#utility.yul\":6749:6758   */\n      dup4\n        /* \"#utility.yul\":6745:6763   */\n      add\n        /* \"#utility.yul\":6736:6742   */\n      dup7\n        /* \"#utility.yul\":6692:6764   */\n      tag_167\n      jump\t// in\n    tag_184:\n        /* \"#utility.yul\":6774:6846   */\n      tag_185\n        /* \"#utility.yul\":6842:6844   */\n      0x60\n        /* \"#utility.yul\":6831:6840   */\n      dup4\n        /* \"#utility.yul\":6827:6845   */\n      add\n        /* \"#utility.yul\":6818:6824   */\n      dup6\n        /* \"#utility.yul\":6774:6846   */\n      tag_167\n      jump\t// in\n    tag_185:\n        /* \"#utility.yul\":6856:6944   */\n      tag_186\n        /* \"#utility.yul\":6939:6942   */\n      0x80\n        /* \"#utility.yul\":6928:6937   */\n      dup4\n        /* \"#utility.yul\":6924:6943   */\n      add\n        /* \"#utility.yul\":6915:6921   */\n      dup5\n        /* \"#utility.yul\":6856:6944   */\n      tag_127\n      jump\t// in\n    tag_186:\n        /* \"#utility.yul\":6257:6951   */\n      swap7\n      swap6\n      pop\n      pop\n      pop\n      pop\n      pop\n      pop\n      jump\t// out\n        /* \"#utility.yul\":6957:7621   */\n    tag_93:\n        /* \"#utility.yul\":7162:7166   */\n      0x00\n        /* \"#utility.yul\":7200:7203   */\n      0xa0\n        /* \"#utility.yul\":7189:7198   */\n      dup3\n        /* \"#utility.yul\":7185:7204   */\n      add\n        /* \"#utility.yul\":7177:7204   */\n      swap1\n      pop\n        /* \"#utility.yul\":7214:7285   */\n      tag_188\n        /* \"#utility.yul\":7282:7283   */\n      0x00\n        /* \"#utility.yul\":7271:7280   */\n      dup4\n        /* \"#utility.yul\":7267:7284   */\n      add\n        /* \"#utility.yul\":7258:7264   */\n      dup9\n        /* \"#utility.yul\":7214:7285   */\n      tag_120\n      jump\t// in\n    tag_188:\n        /* \"#utility.yul\":7295:7367   */\n      tag_189\n        /* \"#utility.yul\":7363:7365   */\n      0x20\n        /* \"#utility.yul\":7352:7361   */\n      dup4\n        /* \"#utility.yul\":7348:7366   */\n      add\n        /* \"#utility.yul\":7339:7345   */\n      dup8\n        /* \"#utility.yul\":7295:7367   */\n      tag_120\n      jump\t// in\n    tag_189:\n        /* \"#utility.yul\":7377:7449   */\n      tag_190\n        /* \"#utility.yul\":7445:7447   */\n      0x40\n        /* \"#utility.yul\":7434:7443   */\n      dup4\n        /* \"#utility.yul\":7430:7448   */\n      add\n        /* \"#utility.yul\":7421:7427   */\n      dup7\n        /* \"#utility.yul\":7377:7449   */\n      tag_167\n      jump\t// in\n    tag_190:\n        /* \"#utility.yul\":7459:7531   */\n      tag_191\n        /* \"#utility.yul\":7527:7529   */\n      0x60\n        /* \"#utility.yul\":7516:7525   */\n      dup4\n        /* \"#utility.yul\":7512:7530   */\n      add\n        /* \"#utility.yul\":7503:7509   */\n      dup6\n        /* \"#utility.yul\":7459:7531   */\n      tag_167\n      jump\t// in\n    tag_191:\n        /* \"#utility.yul\":7541:7614   */\n      tag_192\n        /* \"#utility.yul\":7609:7612   */\n      0x80\n        /* \"#utility.yul\":7598:7607   */\n      dup4\n        /* \"#utility.yul\":7594:7613   */\n      add\n        /* \"#utility.yul\":7585:7591   */\n      dup5\n        /* \"#utility.yul\":7541:7614   */\n      tag_167\n      jump\t// in\n    tag_192:\n        /* \"#utility.yul\":6957:7621   */\n      swap7\n      swap6\n      pop\n      pop\n      pop\n      pop\n      pop\n      pop\n      jump\t// out\n        /* \"#utility.yul\":7627:8046   */\n    tag_47:\n        /* \"#utility.yul\":7793:7797   */\n      0x00\n        /* \"#utility.yul\":7831:7833   */\n      0x20\n        /* \"#utility.yul\":7820:7829   */\n      dup3\n        /* \"#utility.yul\":7816:7834   */\n      add\n        /* \"#utility.yul\":7808:7834   */\n      swap1\n      pop\n        /* \"#utility.yul\":7880:7889   */\n      dup2\n        /* \"#utility.yul\":7874:7878   */\n      dup2\n        /* \"#utility.yul\":7870:7890   */\n      sub\n        /* \"#utility.yul\":7866:7867   */\n      0x00\n        /* \"#utility.yul\":7855:7864   */\n      dup4\n        /* \"#utility.yul\":7851:7868   */\n      add\n        /* \"#utility.yul\":7844:7891   */\n      mstore\n        /* \"#utility.yul\":7908:8039   */\n      tag_194\n        /* \"#utility.yul\":8034:8038   */\n      dup2\n        /* \"#utility.yul\":7908:8039   */\n      tag_130\n      jump\t// in\n    tag_194:\n        /* \"#utility.yul\":7900:8039   */\n      swap1\n      pop\n        /* \"#utility.yul\":7627:8046   */\n      swap2\n      swap1\n      pop\n      jump\t// out\n        /* \"#utility.yul\":8052:8471   */\n    tag_53:\n        /* \"#utility.yul\":8218:8222   */\n      0x00\n        /* \"#utility.yul\":8256:8258   */\n      0x20\n        /* \"#utility.yul\":8245:8254   */\n      dup3\n        /* \"#utility.yul\":8241:8259   */\n      add\n        /* \"#utility.yul\":8233:8259   */\n      swap1\n      pop\n        /* \"#utility.yul\":8305:8314   */\n      dup2\n        /* \"#utility.yul\":8299:8303   */\n      dup2\n        /* \"#utility.yul\":8295:8315   */\n      sub\n        /* \"#utility.yul\":8291:8292   */\n      0x00\n        /* \"#utility.yul\":8280:8289   */\n      dup4\n        /* \"#utility.yul\":8276:8293   */\n      add\n        /* \"#utility.yul\":8269:8316   */\n      mstore\n        /* \"#utility.yul\":8333:8464   */\n      tag_196\n        /* \"#utility.yul\":8459:8463   */\n      dup2\n        /* \"#utility.yul\":8333:8464   */\n      tag_136\n      jump\t// in\n    tag_196:\n        /* \"#utility.yul\":8325:8464   */\n      swap1\n      pop\n        /* \"#utility.yul\":8052:8471   */\n      swap2\n      swap1\n      pop\n      jump\t// out\n        /* \"#utility.yul\":8477:8896   */\n    tag_70:\n        /* \"#utility.yul\":8643:8647   */\n      0x00\n        /* \"#utility.yul\":8681:8683   */\n      0x20\n        /* \"#utility.yul\":8670:8679   */\n      dup3\n        /* \"#utility.yul\":8666:8684   */\n      add\n        /* \"#utility.yul\":8658:8684   */\n      swap1\n      pop\n        /* \"#utility.yul\":8730:8739   */\n      dup2\n        /* \"#utility.yul\":8724:8728   */\n      dup2\n        /* \"#utility.yul\":8720:8740   */\n      sub\n        /* \"#utility.yul\":8716:8717   */\n      0x00\n        /* \"#utility.yul\":8705:8714   */\n      dup4\n        /* \"#utility.yul\":8701:8718   */\n      add\n        /* \"#utility.yul\":8694:8741   */\n      mstore\n        /* \"#utility.yul\":8758:8889   */\n      tag_198\n        /* \"#utility.yul\":8884:8888   */\n      dup2\n        /* \"#utility.yul\":8758:8889   */\n      tag_141\n      jump\t// in\n    tag_198:\n        /* \"#utility.yul\":8750:8889   */\n      swap1\n      pop\n        /* \"#utility.yul\":8477:8896   */\n      swap2\n      swap1\n      pop\n      jump\t// out\n        /* \"#utility.yul\":8902:9321   */\n    tag_73:\n        /* \"#utility.yul\":9068:9072   */\n      0x00\n        /* \"#utility.yul\":9106:9108   */\n      0x20\n        /* \"#utility.yul\":9095:9104   */\n      dup3\n        /* \"#utility.yul\":9091:9109   */\n      add\n        /* \"#utility.yul\":9083:9109   */\n      swap1\n      pop\n        /* \"#utility.yul\":9155:9164   */\n      dup2\n        /* \"#utility.yul\":9149:9153   */\n      dup2\n        /* \"#utility.yul\":9145:9165   */\n      sub\n        /* \"#utility.yul\":9141:9142   */\n      0x00\n        /* \"#utility.yul\":9130:9139   */\n      dup4\n        /* \"#utility.yul\":9126:9143   */\n      add\n        /* \"#utility.yul\":9119:9166   */\n      mstore\n        /* \"#utility.yul\":9183:9314   */\n      tag_200\n        /* \"#utility.yul\":9309:9313   */\n      dup2\n        /* \"#utility.yul\":9183:9314   */\n      tag_146\n      jump\t// in\n    tag_200:\n        /* \"#utility.yul\":9175:9314   */\n      swap1\n      pop\n        /* \"#utility.yul\":8902:9321   */\n      swap2\n      swap1\n      pop\n      jump\t// out\n        /* \"#utility.yul\":9327:9746   */\n    tag_50:\n        /* \"#utility.yul\":9493:9497   */\n      0x00\n        /* \"#utility.yul\":9531:9533   */\n      0x20\n        /* \"#utility.yul\":9520:9529   */\n      dup3\n        /* \"#utility.yul\":9516:9534   */\n      add\n        /* \"#utility.yul\":9508:9534   */\n      swap1\n      pop\n        /* \"#utility.yul\":9580:9589   */\n      dup2\n        /* \"#utility.yul\":9574:9578   */\n      dup2\n        /* \"#utility.yul\":9570:9590   */\n      sub\n        /* \"#utility.yul\":9566:9567   */\n      0x00\n        /* \"#utility.yul\":9555:9564   */\n      dup4\n        /* \"#utility.yul\":9551:9568   */\n      add\n        /* \"#utility.yul\":9544:9591   */\n      mstore\n        /* \"#utility.yul\":9608:9739   */\n      tag_202\n        /* \"#utility.yul\":9734:9738   */\n      dup2\n        /* \"#utility.yul\":9608:9739   */\n      tag_151\n      jump\t// in\n    tag_202:\n        /* \"#utility.yul\":9600:9739   */\n      swap1\n      pop\n        /* \"#utility.yul\":9327:9746   */\n      swap2\n      swap1\n      pop\n      jump\t// out\n        /* \"#utility.yul\":9752:10071   */\n    tag_13:\n        /* \"#utility.yul\":9893:9897   */\n      0x00\n        /* \"#utility.yul\":9931:9934   */\n      0xa0\n        /* \"#utility.yul\":9920:9929   */\n      dup3\n        /* \"#utility.yul\":9916:9935   */\n      add\n        /* \"#utility.yul\":9908:9935   */\n      swap1\n      pop\n        /* \"#utility.yul\":9945:10064   */\n      tag_204\n        /* \"#utility.yul\":10061:10062   */\n      0x00\n        /* \"#utility.yul\":10050:10059   */\n      dup4\n        /* \"#utility.yul\":10046:10063   */\n      add\n        /* \"#utility.yul\":10037:10043   */\n      dup5\n        /* \"#utility.yul\":9945:10064   */\n      tag_156\n      jump\t// in\n    tag_204:\n        /* \"#utility.yul\":9752:10071   */\n      swap3\n      swap2\n      pop\n      pop\n      jump\t// out\n        /* \"#utility.yul\":10158:10327   */\n    tag_133:\n        /* \"#utility.yul\":10242:10253   */\n      0x00\n        /* \"#utility.yul\":10276:10282   */\n      dup3\n        /* \"#utility.yul\":10271:10274   */\n      dup3\n        /* \"#utility.yul\":10264:10283   */\n      mstore\n        /* \"#utility.yul\":10316:10320   */\n      0x20\n        /* \"#utility.yul\":10311:10314   */\n      dup3\n        /* \"#utility.yul\":10307:10321   */\n      add\n        /* \"#utility.yul\":10292:10321   */\n      swap1\n      pop\n        /* \"#utility.yul\":10158:10327   */\n      swap3\n      swap2\n      pop\n      pop\n      jump\t// out\n        /* \"#utility.yul\":10333:10429   */\n    tag_119:\n        /* \"#utility.yul\":10370:10377   */\n      0x00\n        /* \"#utility.yul\":10399:10423   */\n      tag_209\n        /* \"#utility.yul\":10417:10422   */\n      dup3\n        /* \"#utility.yul\":10399:10423   */\n      tag_210\n      jump\t// in\n    tag_209:\n        /* \"#utility.yul\":10388:10423   */\n      swap1\n      pop\n        /* \"#utility.yul\":10333:10429   */\n      swap2\n      swap1\n      pop\n      jump\t// out\n        /* \"#utility.yul\":10435:10580   */\n    tag_211:\n        /* \"#utility.yul\":10489:10496   */\n      0x00\n        /* \"#utility.yul\":10518:10523   */\n      dup2\n        /* \"#utility.yul\":10507:10523   */\n      swap1\n      pop\n        /* \"#utility.yul\":10524:10574   */\n      tag_213\n        /* \"#utility.yul\":10568:10573   */\n      dup3\n        /* \"#utility.yul\":10524:10574   */\n      tag_214\n      jump\t// in\n    tag_213:\n        /* \"#utility.yul\":10435:10580   */\n      swap2\n      swap1\n      pop\n      jump\t// out\n        /* \"#utility.yul\":10586:10712   */\n    tag_210:\n        /* \"#utility.yul\":10623:10630   */\n      0x00\n        /* \"#utility.yul\":10663:10705   */\n      0xffffffffffffffffffffffffffffffffffffffff\n        /* \"#utility.yul\":10656:10661   */\n      dup3\n        /* \"#utility.yul\":10652:10706   */\n      and\n        /* \"#utility.yul\":10641:10706   */\n      swap1\n      pop\n        /* \"#utility.yul\":10586:10712   */\n      swap2\n      swap1\n      pop\n      jump\t// out\n        /* \"#utility.yul\":10718:10795   */\n    tag_166:\n        /* \"#utility.yul\":10755:10762   */\n      0x00\n        /* \"#utility.yul\":10784:10789   */\n      dup2\n        /* \"#utility.yul\":10773:10789   */\n      swap1\n      pop\n        /* \"#utility.yul\":10718:10795   */\n      swap2\n      swap1\n      pop\n      jump\t// out\n        /* \"#utility.yul\":10801:10946   */\n    tag_126:\n        /* \"#utility.yul\":10866:10875   */\n      0x00\n        /* \"#utility.yul\":10899:10940   */\n      tag_218\n        /* \"#utility.yul\":10934:10939   */\n      dup3\n        /* \"#utility.yul\":10899:10940   */\n      tag_211\n      jump\t// in\n    tag_218:\n        /* \"#utility.yul\":10886:10940   */\n      swap1\n      pop\n        /* \"#utility.yul\":10801:10946   */\n      swap2\n      swap1\n      pop\n      jump\t// out\n        /* \"#utility.yul\":10952:11185   */\n    tag_89:\n        /* \"#utility.yul\":10991:10994   */\n      0x00\n        /* \"#utility.yul\":11014:11038   */\n      tag_220\n        /* \"#utility.yul\":11032:11037   */\n      dup3\n        /* \"#utility.yul\":11014:11038   */\n      tag_166\n      jump\t// in\n    tag_220:\n        /* \"#utility.yul\":11005:11038   */\n      swap2\n      pop\n        /* \"#utility.yul\":11060:11126   */\n      0xffffffffffffffffffffffffffffffffffffffffffffffffffffffffffffffff\n        /* \"#utility.yul\":11053:11058   */\n      dup3\n        /* \"#utility.yul\":11050:11127   */\n      eq\n        /* \"#utility.yul\":11047:11150   */\n      iszero\n      tag_221\n      jumpi\n        /* \"#utility.yul\":11130:11148   */\n      tag_222\n      tag_223\n      jump\t// in\n    tag_222:\n        /* \"#utility.yul\":11047:11150   */\n    tag_221:\n        /* \"#utility.yul\":11177:11178   */\n      0x01\n        /* \"#utility.yul\":11170:11175   */\n      dup3\n        /* \"#utility.yul\":11166:11179   */\n      add\n        /* \"#utility.yul\":11159:11179   */\n      swap1\n      pop\n        /* \"#utility.yul\":10952:11185   */\n      swap2\n      swap1\n      pop\n      jump\t// out\n        /* \"#utility.yul\":11191:11371   */\n    tag_223:\n        /* \"#utility.yul\":11239:11316   */\n      0x4e487b7100000000000000000000000000000000000000000000000000000000\n        /* \"#utility.yul\":11236:11237   */\n      0x00\n        /* \"#utility.yul\":11229:11317   */\n      mstore\n        /* \"#utility.yul\":11336:11340   */\n      0x11\n        /* \"#utility.yul\":11333:11334   */\n      0x04\n        /* \"#utility.yul\":11326:11341   */\n      mstore\n        /* \"#utility.yul\":11360:11364   */\n      0x24\n        /* \"#utility.yul\":11357:11358   */\n      0x00\n        /* \"#utility.yul\":11350:11365   */\n      revert\n        /* \"#utility.yul\":11377:11557   */\n    tag_37:\n        /* \"#utility.yul\":11425:11502   */\n      0x4e487b7100000000000000000000000000000000000000000000000000000000\n        /* \"#utility.yul\":11422:11423   */\n      0x00\n        /* \"#utility.yul\":11415:11503   */\n      mstore\n        /* \"#utility.yul\":11522:11526   */\n      0x21\n        /* \"#utility.yul\":11519:11520   */\n      0x04\n        /* \"#utility.yul\":11512:11527   */\n      mstore\n        /* \"#utility.yul\":11546:11550   */\n      0x24\n        /* \"#utility.yul\":11543:11544   */\n      0x00\n        /* \"#utility.yul\":11536:11551   */\n      revert\n        /* \"#utility.yul\":11686:11803   */\n    tag_108:\n        /* \"#utility.yul\":11795:11796   */\n      0x00\n        /* \"#utility.yul\":11792:11793   */\n      dup1\n        /* \"#utility.yul\":11785:11797   */\n      revert\n        /* \"#utility.yul\":11809:11981   */\n    tag_135:\n        /* \"#utility.yul\":11949:11973   */\n      0x4c697374696e67206d7573742062652061637469766500000000000000000000\n        /* \"#utility.yul\":11945:11946   */\n      0x00\n        /* \"#utility.yul\":11937:11943   */\n      dup3\n        /* \"#utility.yul\":11933:11947   */\n      add\n        /* \"#utility.yul\":11926:11974   */\n      mstore\n        /* \"#utility.yul\":11809:11981   */\n      pop\n      jump\t// out\n        /* \"#utility.yul\":11987:12155   */\n    tag_140:\n        /* \"#utility.yul\":12127:12147   */\n      0x496e73756666696369656e742066756e64730000000000000000000000000000\n        /* \"#utility.yul\":12123:12124   */\n      0x00\n        /* \"#utility.yul\":12115:12121   */\n      dup3\n        /* \"#utility.yul\":12111:12125   */\n      add\n        /* \"#utility.yul\":12104:12148   */\n      mstore\n        /* \"#utility.yul\":11987:12155   */\n      pop\n      jump\t// out\n        /* \"#utility.yul\":12161:12332   */\n    tag_145:\n        /* \"#utility.yul\":12301:12324   */\n      0x4c697374696e67206973206e6f74206163746976650000000000000000000000\n        /* \"#utility.yul\":12297:12298   */\n      0x00\n        /* \"#utility.yul\":12289:12295   */\n      dup3\n        /* \"#utility.yul\":12285:12299   */\n      add\n        /* \"#utility.yul\":12278:12325   */\n      mstore\n        /* \"#utility.yul\":12161:12332   */\n      pop\n      jump\t// out\n        /* \"#utility.yul\":12338:12560   */\n    tag_150:\n        /* \"#utility.yul\":12478:12512   */\n      0x4d75737420626520746865206f776e657220746f2063616e63656c206c697374\n        /* \"#utility.yul\":12474:12475   */\n      0x00\n        /* \"#utility.yul\":12466:12472   */\n      dup3\n        /* \"#utility.yul\":12462:12476   */\n      add\n        /* \"#utility.yul\":12455:12513   */\n      mstore\n        /* \"#utility.yul\":12547:12552   */\n      0x696e670000000000000000000000000000000000000000000000000000000000\n        /* \"#utility.yul\":12542:12544   */\n      0x20\n        /* \"#utility.yul\":12534:12540   */\n      dup3\n        /* \"#utility.yul\":12530:12545   */\n      add\n        /* \"#utility.yul\":12523:12553   */\n      mstore\n        /* \"#utility.yul\":12338:12560   */\n      pop\n      jump\t// out\n        /* \"#utility.yul\":12566:12743   */\n    tag_155:\n        /* \"#utility.yul\":12706:12735   */\n      0x43616e6e6f742062757920796f7572206f776e206c697374696e670000000000\n        /* \"#utility.yul\":12702:12703   */\n      0x00\n        /* \"#utility.yul\":12694:12700   */\n      dup3\n        /* \"#utility.yul\":12690:12704   */\n      add\n        /* \"#utility.yul\":12683:12736   */\n      mstore\n        /* \"#utility.yul\":12566:12743   */\n      pop\n      jump\t// out\n        /* \"#utility.yul\":12749:12871   */\n    tag_214:\n        /* \"#utility.yul\":12839:12840   */\n      0x03\n        /* \"#utility.yul\":12832:12837   */\n      dup2\n        /* \"#utility.yul\":12829:12841   */\n      lt\n        /* \"#utility.yul\":12819:12865   */\n      tag_235\n      jumpi\n        /* \"#utility.yul\":12845:12863   */\n      tag_236\n      tag_37\n      jump\t// in\n    tag_236:\n        /* \"#utility.yul\":12819:12865   */\n    tag_235:\n        /* \"#utility.yul\":12749:12871   */\n      pop\n      jump\t// out\n        /* \"#utility.yul\":12877:12999   */\n    tag_100:\n        /* \"#utility.yul\":12950:12974   */\n      tag_238\n        /* \"#utility.yul\":12968:12973   */\n      dup2\n        /* \"#utility.yul\":12950:12974   */\n      tag_119\n      jump\t// in\n    tag_238:\n        /* \"#utility.yul\":12943:12948   */\n      dup2\n        /* \"#utility.yul\":12940:12975   */\n      eq\n        /* \"#utility.yul\":12930:12993   */\n      tag_239\n      jumpi\n        /* \"#utility.yul\":12989:12990   */\n      0x00\n        /* \"#utility.yul\":12986:12987   */\n      dup1\n        /* \"#utility.yul\":12979:12991   */\n      revert\n        /* \"#utility.yul\":12930:12993   */\n    tag_239:\n        /* \"#utility.yul\":12877:12999   */\n      pop\n      jump\t// out\n        /* \"#utility.yul\":13005:13127   */\n    tag_104:\n        /* \"#utility.yul\":13078:13102   */\n      tag_241\n        /* \"#utility.yul\":13096:13101   */\n      dup2\n        /* \"#utility.yul\":13078:13102   */\n      tag_166\n      jump\t// in\n    tag_241:\n        /* \"#utility.yul\":13071:13076   */\n      dup2\n        /* \"#utility.yul\":13068:13103   */\n      eq\n        /* \"#utility.yul\":13058:13121   */\n      tag_242\n      jumpi\n        /* \"#utility.yul\":13117:13118   */\n      0x00\n        /* \"#utility.yul\":13114:13115   */\n      dup1\n        /* \"#utility.yul\":13107:13119   */\n      revert\n        /* \"#utility.yul\":13058:13121   */\n    tag_242:\n        /* \"#utility.yul\":13005:13127   */\n      pop\n      jump\t// out\n\n    auxdata: 0xa264697066735822122067a0adaf8fc4b6183b1237a9fa9e715ca36f79f3ae40250b540d9101ee1788bf64736f6c63430008070033\n}\n",
				"bytecode": {
					"linkReferences": {},
					"object": "60806040526000805534801561001457600080fd5b5061115e806100246000396000f3fe60806040526004361061004a5760003560e01c8063107a274a1461004f5780632d296bf11461008c57806340e58ee5146100a85780637e07590d146100d1578063de74e57b146100fa575b600080fd5b34801561005b57600080fd5b5061007660048036038101906100719190610b3e565b61013b565b6040516100839190610eba565b60405180910390f35b6100a660048036038101906100a19190610b3e565b610263565b005b3480156100b457600080fd5b506100cf60048036038101906100ca9190610b3e565b610567565b005b3480156100dd57600080fd5b506100f860048036038101906100f39190610aeb565b6107b3565b005b34801561010657600080fd5b50610121600480360381019061011c9190610b3e565b6109d1565b604051610132959493929190610d74565b60405180910390f35b610143610a54565b600160008381526020019081526020016000206040518060a00160405290816000820160009054906101000a900473ffffffffffffffffffffffffffffffffffffffff1673ffffffffffffffffffffffffffffffffffffffff1673ffffffffffffffffffffffffffffffffffffffff1681526020016001820160009054906101000a900473ffffffffffffffffffffffffffffffffffffffff1673ffffffffffffffffffffffffffffffffffffffff1673ffffffffffffffffffffffffffffffffffffffff16815260200160028201548152602001600382015481526020016004820160009054906101000a900460ff16600281111561024657610245610fbf565b5b600281111561025857610257610fbf565b5b815250509050919050565b60006001600083815260200190815260200160002090506000600281111561028e5761028d610fbf565b5b8160040160009054906101000a900460ff1660028111156102b2576102b1610fbf565b5b146102f2576040517f08c379a00000000000000000000000000000000000000000000000000000000081526004016102e990610e1a565b60405180910390fd5b8060010160009054906101000a900473ffffffffffffffffffffffffffffffffffffffff1673ffffffffffffffffffffffffffffffffffffffff163373ffffffffffffffffffffffffffffffffffffffff161415610385576040517f08c379a000000000000000000000000000000000000000000000000000000000815260040161037c90610e9a565b60405180910390fd5b80600301543410156103cc576040517f08c379a00000000000000000000000000000000000000000000000000000000081526004016103c390610e3a565b60405180910390fd5b8060000160009054906101000a900473ffffffffffffffffffffffffffffffffffffffff1673ffffffffffffffffffffffffffffffffffffffff166323b872dd303384600201546040518463ffffffff1660e01b815260040161043193929190610d3d565b600060405180830381600087803b15801561044b57600080fd5b505af115801561045f573d6000803e3d6000fd5b505050508060010160009054906101000a900473ffffffffffffffffffffffffffffffffffffffff1673ffffffffffffffffffffffffffffffffffffffff166108fc82600301549081150290604051600060405180830381858888f193505050501580156104d1573d6000803e3d6000fd5b507fb98b19c2f39a8910882da6b63c2dceedb6e0c627a20418117ee5312e03e0ad228160010160009054906101000a900473ffffffffffffffffffffffffffffffffffffffff16338360000160009054906101000a900473ffffffffffffffffffffffffffffffffffffffff16846002015485600301548760405161055b96959493929190610cdc565b60405180910390a15050565b60006001600083815260200190815260200160002090506000600281111561059257610591610fbf565b5b8160040160009054906101000a900460ff1660028111156105b6576105b5610fbf565b5b146105f6576040517f08c379a00000000000000000000000000000000000000000000000000000000081526004016105ed90610e5a565b60405180910390fd5b8060010160009054906101000a900473ffffffffffffffffffffffffffffffffffffffff1673ffffffffffffffffffffffffffffffffffffffff163373ffffffffffffffffffffffffffffffffffffffff1614610688576040517f08c379a000000000000000000000000000000000000000000000000000000000815260040161067f90610e7a565b60405180910390fd5b60028160040160006101000a81548160ff021916908360028111156106b0576106af610fbf565b5b02179055508060000160009054906101000a900473ffffffffffffffffffffffffffffffffffffffff1673ffffffffffffffffffffffffffffffffffffffff166323b872dd303384600201546040518463ffffffff1660e01b815260040161071a93929190610d3d565b600060405180830381600087803b15801561073457600080fd5b505af1158015610748573d6000803e3d6000fd5b505050507f977ca88fbe72d930c467bb5e513bf5120fa044293ebf66e5deb33354c612c9fb338260000160009054906101000a900473ffffffffffffffffffffffffffffffffffffffff1683600201546040516107a793929190610d3d565b60405180910390a15050565b8273ffffffffffffffffffffffffffffffffffffffff166323b872dd3330856040518463ffffffff1660e01b81526004016107f093929190610d3d565b600060405180830381600087803b15801561080a57600080fd5b505af115801561081e573d6000803e3d6000fd5b5050505060006040518060a001604052808573ffffffffffffffffffffffffffffffffffffffff1681526020013373ffffffffffffffffffffffffffffffffffffffff1681526020018481526020018381526020016000600281111561088757610886610fbf565b5b815250905080600160008060008154809291906108a390610f47565b91905055815260200190815260200160002060008201518160000160006101000a81548173ffffffffffffffffffffffffffffffffffffffff021916908373ffffffffffffffffffffffffffffffffffffffff16021790555060208201518160010160006101000a81548173ffffffffffffffffffffffffffffffffffffffff021916908373ffffffffffffffffffffffffffffffffffffffff160217905550604082015181600201556060820151816003015560808201518160040160006101000a81548160ff0219169083600281111561098257610981610fbf565b5b02179055509050507fabfb5edcb4ca5ae4ac3d101f5e471e4bd364ff2a111db101f887c2d45737e331338585856000546040516109c3959493929190610dc7565b60405180910390a150505050565b60016020528060005260406000206000915090508060000160009054906101000a900473ffffffffffffffffffffffffffffffffffffffff16908060010160009054906101000a900473ffffffffffffffffffffffffffffffffffffffff16908060020154908060030154908060040160009054906101000a900460ff16905085565b6040518060a00160405280600073ffffffffffffffffffffffffffffffffffffffff168152602001600073ffffffffffffffffffffffffffffffffffffffff168152602001600081526020016000815260200160006002811115610abb57610aba610fbf565b5b81525090565b600081359050610ad0816110fa565b92915050565b600081359050610ae581611111565b92915050565b600080600060608486031215610b0457610b03610fee565b5b6000610b1286828701610ac1565b9350506020610b2386828701610ad6565b9250506040610b3486828701610ad6565b9150509250925092565b600060208284031215610b5457610b53610fee565b5b6000610b6284828501610ad6565b91505092915050565b610b7481610ee6565b82525050565b610b8381610ee6565b82525050565b610b9281610f35565b82525050565b610ba181610f35565b82525050565b6000610bb4601683610ed5565b9150610bbf82610ff3565b602082019050919050565b6000610bd7601283610ed5565b9150610be28261101c565b602082019050919050565b6000610bfa601583610ed5565b9150610c0582611045565b602082019050919050565b6000610c1d602383610ed5565b9150610c288261106e565b604082019050919050565b6000610c40601b83610ed5565b9150610c4b826110bd565b602082019050919050565b60a082016000820151610c6c6000850182610b6b565b506020820151610c7f6020850182610b6b565b506040820151610c926040850182610cbe565b506060820151610ca56060850182610cbe565b506080820151610cb86080850182610b89565b50505050565b610cc781610f2b565b82525050565b610cd681610f2b565b82525050565b600060c082019050610cf16000830189610b7a565b610cfe6020830188610b7a565b610d0b6040830187610b7a565b610d186060830186610ccd565b610d256080830185610ccd565b610d3260a0830184610ccd565b979650505050505050565b6000606082019050610d526000830186610b7a565b610d5f6020830185610b7a565b610d6c6040830184610ccd565b949350505050565b600060a082019050610d896000830188610b7a565b610d966020830187610b7a565b610da36040830186610ccd565b610db06060830185610ccd565b610dbd6080830184610b98565b9695505050505050565b600060a082019050610ddc6000830188610b7a565b610de96020830187610b7a565b610df66040830186610ccd565b610e036060830185610ccd565b610e106080830184610ccd565b9695505050505050565b60006020820190508181036000830152610e3381610ba7565b9050919050565b60006020820190508181036000830152610e5381610bca565b9050919050565b60006020820190508181036000830152610e7381610bed565b9050919050565b60006020820190508181036000830152610e9381610c10565b9050919050565b60006020820190508181036000830152610eb381610c33565b9050919050565b600060a082019050610ecf6000830184610c56565b92915050565b600082825260208201905092915050565b6000610ef182610f0b565b9050919050565b6000819050610f06826110e6565b919050565b600073ffffffffffffffffffffffffffffffffffffffff82169050919050565b6000819050919050565b6000610f4082610ef8565b9050919050565b6000610f5282610f2b565b91507fffffffffffffffffffffffffffffffffffffffffffffffffffffffffffffffff821415610f8557610f84610f90565b5b600182019050919050565b7f4e487b7100000000000000000000000000000000000000000000000000000000600052601160045260246000fd5b7f4e487b7100000000000000000000000000000000000000000000000000000000600052602160045260246000fd5b600080fd5b7f4c697374696e67206d7573742062652061637469766500000000000000000000600082015250565b7f496e73756666696369656e742066756e64730000000000000000000000000000600082015250565b7f4c697374696e67206973206e6f74206163746976650000000000000000000000600082015250565b7f4d75737420626520746865206f776e657220746f2063616e63656c206c69737460008201527f696e670000000000000000000000000000000000000000000000000000000000602082015250565b7f43616e6e6f742062757920796f7572206f776e206c697374696e670000000000600082015250565b600381106110f7576110f6610fbf565b5b50565b61110381610ee6565b811461110e57600080fd5b50565b61111a81610f2b565b811461112557600080fd5b5056fea264697066735822122067a0adaf8fc4b6183b1237a9fa9e715ca36f79f3ae40250b540d9101ee1788bf64736f6c63430008070033",
					"opcodes": "PUSH1 0x80 PUSH1 0x40 MSTORE PUSH1 0x0 DUP1 SSTORE CALLVALUE DUP1 ISZERO PUSH2 0x14 JUMPI PUSH1 0x0 DUP1 REVERT JUMPDEST POP PUSH2 0x115E DUP1 PUSH2 0x24 PUSH1 0x0 CODECOPY PUSH1 0x0 RETURN INVALID PUSH1 0x80 PUSH1 0x40 MSTORE PUSH1 0x4 CALLDATASIZE LT PUSH2 0x4A JUMPI PUSH1 0x0 CALLDATALOAD PUSH1 0xE0 SHR DUP1 PUSH4 0x107A274A EQ PUSH2 0x4F JUMPI DUP1 PUSH4 0x2D296BF1 EQ PUSH2 0x8C JUMPI DUP1 PUSH4 0x40E58EE5 EQ PUSH2 0xA8 JUMPI DUP1 PUSH4 0x7E07590D EQ PUSH2 0xD1 JUMPI DUP1 PUSH4 0xDE74E57B EQ PUSH2 0xFA JUMPI JUMPDEST PUSH1 0x0 DUP1 REVERT JUMPDEST CALLVALUE DUP1 ISZERO PUSH2 0x5B JUMPI PUSH1 0x0 DUP1 REVERT JUMPDEST POP PUSH2 0x76 PUSH1 0x4 DUP1 CALLDATASIZE SUB DUP2 ADD SWAP1 PUSH2 0x71 SWAP2 SWAP1 PUSH2 0xB3E JUMP JUMPDEST PUSH2 0x13B JUMP JUMPDEST PUSH1 0x40 MLOAD PUSH2 0x83 SWAP2 SWAP1 PUSH2 0xEBA JUMP JUMPDEST PUSH1 0x40 MLOAD DUP1 SWAP2 SUB SWAP1 RETURN JUMPDEST PUSH2 0xA6 PUSH1 0x4 DUP1 CALLDATASIZE SUB DUP2 ADD SWAP1 PUSH2 0xA1 SWAP2 SWAP1 PUSH2 0xB3E JUMP JUMPDEST PUSH2 0x263 JUMP JUMPDEST STOP JUMPDEST CALLVALUE DUP1 ISZERO PUSH2 0xB4 JUMPI PUSH1 0x0 DUP1 REVERT JUMPDEST POP PUSH2 0xCF PUSH1 0x4 DUP1 CALLDATASIZE SUB DUP2 ADD SWAP1 PUSH2 0xCA SWAP2 SWAP1 PUSH2 0xB3E JUMP JUMPDEST PUSH2 0x567 JUMP JUMPDEST STOP JUMPDEST CALLVALUE DUP1 ISZERO PUSH2 0xDD JUMPI PUSH1 0x0 DUP1 REVERT JUMPDEST POP PUSH2 0xF8 PUSH1 0x4 DUP1 CALLDATASIZE SUB DUP2 ADD SWAP1 PUSH2 0xF3 SWAP2 SWAP1 PUSH2 0xAEB JUMP JUMPDEST PUSH2 0x7B3 JUMP JUMPDEST STOP JUMPDEST CALLVALUE DUP1 ISZERO PUSH2 0x106 JUMPI PUSH1 0x0 DUP1 REVERT JUMPDEST POP PUSH2 0x121 PUSH1 0x4 DUP1 CALLDATASIZE SUB DUP2 ADD SWAP1 PUSH2 0x11C SWAP2 SWAP1 PUSH2 0xB3E JUMP JUMPDEST PUSH2 0x9D1 JUMP JUMPDEST PUSH1 0x40 MLOAD PUSH2 0x132 SWAP6 SWAP5 SWAP4 SWAP3 SWAP2 SWAP1 PUSH2 0xD74 JUMP JUMPDEST PUSH1 0x40 MLOAD DUP1 SWAP2 SUB SWAP1 RETURN JUMPDEST PUSH2 0x143 PUSH2 0xA54 JUMP JUMPDEST PUSH1 0x1 PUSH1 0x0 DUP4 DUP2 MSTORE PUSH1 0x20 ADD SWAP1 DUP2 MSTORE PUSH1 0x20 ADD PUSH1 0x0 KECCAK256 PUSH1 0x40 MLOAD DUP1 PUSH1 0xA0 ADD PUSH1 0x40 MSTORE SWAP1 DUP2 PUSH1 0x0 DUP3 ADD PUSH1 0x0 SWAP1 SLOAD SWAP1 PUSH2 0x100 EXP SWAP1 DIV PUSH20 0xFFFFFFFFFFFFFFFFFFFFFFFFFFFFFFFFFFFFFFFF AND PUSH20 0xFFFFFFFFFFFFFFFFFFFFFFFFFFFFFFFFFFFFFFFF AND PUSH20 0xFFFFFFFFFFFFFFFFFFFFFFFFFFFFFFFFFFFFFFFF AND DUP2 MSTORE PUSH1 0x20 ADD PUSH1 0x1 DUP3 ADD PUSH1 0x0 SWAP1 SLOAD SWAP1 PUSH2 0x100 EXP SWAP1 DIV PUSH20 0xFFFFFFFFFFFFFFFFFFFFFFFFFFFFFFFFFFFFFFFF AND PUSH20 0xFFFFFFFFFFFFFFFFFFFFFFFFFFFFFFFFFFFFFFFF AND PUSH20 0xFFFFFFFFFFFFFFFFFFFFFFFFFFFFFFFFFFFFFFFF AND DUP2 MSTORE PUSH1 0x20 ADD PUSH1 0x2 DUP3 ADD SLOAD DUP2 MSTORE PUSH1 0x20 ADD PUSH1 0x3 DUP3 ADD SLOAD DUP2 MSTORE PUSH1 0x20 ADD PUSH1 0x4 DUP3 ADD PUSH1 0x0 SWAP1 SLOAD SWAP1 PUSH2 0x100 EXP SWAP1 DIV PUSH1 0xFF AND PUSH1 0x2 DUP2 GT ISZERO PUSH2 0x246 JUMPI PUSH2 0x245 PUSH2 0xFBF JUMP JUMPDEST JUMPDEST PUSH1 0x2 DUP2 GT ISZERO PUSH2 0x258 JUMPI PUSH2 0x257 PUSH2 0xFBF JUMP JUMPDEST JUMPDEST DUP2 MSTORE POP POP SWAP1 POP SWAP2 SWAP1 POP JUMP JUMPDEST PUSH1 0x0 PUSH1 0x1 PUSH1 0x0 DUP4 DUP2 MSTORE PUSH1 0x20 ADD SWAP1 DUP2 MSTORE PUSH1 0x20 ADD PUSH1 0x0 KECCAK256 SWAP1 POP PUSH1 0x0 PUSH1 0x2 DUP2 GT ISZERO PUSH2 0x28E JUMPI PUSH2 0x28D PUSH2 0xFBF JUMP JUMPDEST JUMPDEST DUP2 PUSH1 0x4 ADD PUSH1 0x0 SWAP1 SLOAD SWAP1 PUSH2 0x100 EXP SWAP1 DIV PUSH1 0xFF AND PUSH1 0x2 DUP2 GT ISZERO PUSH2 0x2B2 JUMPI PUSH2 0x2B1 PUSH2 0xFBF JUMP JUMPDEST JUMPDEST EQ PUSH2 0x2F2 JUMPI PUSH1 0x40 MLOAD PUSH32 0x8C379A000000000000000000000000000000000000000000000000000000000 DUP2 MSTORE PUSH1 0x4 ADD PUSH2 0x2E9 SWAP1 PUSH2 0xE1A JUMP JUMPDEST PUSH1 0x40 MLOAD DUP1 SWAP2 SUB SWAP1 REVERT JUMPDEST DUP1 PUSH1 0x1 ADD PUSH1 0x0 SWAP1 SLOAD SWAP1 PUSH2 0x100 EXP SWAP1 DIV PUSH20 0xFFFFFFFFFFFFFFFFFFFFFFFFFFFFFFFFFFFFFFFF AND PUSH20 0xFFFFFFFFFFFFFFFFFFFFFFFFFFFFFFFFFFFFFFFF AND CALLER PUSH20 0xFFFFFFFFFFFFFFFFFFFFFFFFFFFFFFFFFFFFFFFF AND EQ ISZERO PUSH2 0x385 JUMPI PUSH1 0x40 MLOAD PUSH32 0x8C379A000000000000000000000000000000000000000000000000000000000 DUP2 MSTORE PUSH1 0x4 ADD PUSH2 0x37C SWAP1 PUSH2 0xE9A JUMP JUMPDEST PUSH1 0x40 MLOAD DUP1 SWAP2 SUB SWAP1 REVERT JUMPDEST DUP1 PUSH1 0x3 ADD SLOAD CALLVALUE LT ISZERO PUSH2 0x3CC JUMPI PUSH1 0x40 MLOAD PUSH32 0x8C379A000000000000000000000000000000000000000000000000000000000 DUP2 MSTORE PUSH1 0x4 ADD PUSH2 0x3C3 SWAP1 PUSH2 0xE3A JUMP JUMPDEST PUSH1 0x40 MLOAD DUP1 SWAP2 SUB SWAP1 REVERT JUMPDEST DUP1 PUSH1 0x0 ADD PUSH1 0x0 SWAP1 SLOAD SWAP1 PUSH2 0x100 EXP SWAP1 DIV PUSH20 0xFFFFFFFFFFFFFFFFFFFFFFFFFFFFFFFFFFFFFFFF AND PUSH20 0xFFFFFFFFFFFFFFFFFFFFFFFFFFFFFFFFFFFFFFFF AND PUSH4 0x23B872DD ADDRESS CALLER DUP5 PUSH1 0x2 ADD SLOAD PUSH1 0x40 MLOAD DUP5 PUSH4 0xFFFFFFFF AND PUSH1 0xE0 SHL DUP2 MSTORE PUSH1 0x4 ADD PUSH2 0x431 SWAP4 SWAP3 SWAP2 SWAP1 PUSH2 0xD3D JUMP JUMPDEST PUSH1 0x0 PUSH1 0x40 MLOAD DUP1 DUP4 SUB DUP2 PUSH1 0x0 DUP8 DUP1 EXTCODESIZE ISZERO DUP1 ISZERO PUSH2 0x44B JUMPI PUSH1 0x0 DUP1 REVERT JUMPDEST POP GAS CALL ISZERO DUP1 ISZERO PUSH2 0x45F JUMPI RETURNDATASIZE PUSH1 0x0 DUP1 RETURNDATACOPY RETURNDATASIZE PUSH1 0x0 REVERT JUMPDEST POP POP POP POP DUP1 PUSH1 0x1 ADD PUSH1 0x0 SWAP1 SLOAD SWAP1 PUSH2 0x100 EXP SWAP1 DIV PUSH20 0xFFFFFFFFFFFFFFFFFFFFFFFFFFFFFFFFFFFFFFFF AND PUSH20 0xFFFFFFFFFFFFFFFFFFFFFFFFFFFFFFFFFFFFFFFF AND PUSH2 0x8FC DUP3 PUSH1 0x3 ADD SLOAD SWAP1 DUP2 ISZERO MUL SWAP1 PUSH1 0x40 MLOAD PUSH1 0x0 PUSH1 0x40 MLOAD DUP1 DUP4 SUB DUP2 DUP6 DUP9 DUP9 CALL SWAP4 POP POP POP POP ISZERO DUP1 ISZERO PUSH2 0x4D1 JUMPI RETURNDATASIZE PUSH1 0x0 DUP1 RETURNDATACOPY RETURNDATASIZE PUSH1 0x0 REVERT JUMPDEST POP PUSH32 0xB98B19C2F39A8910882DA6B63C2DCEEDB6E0C627A20418117EE5312E03E0AD22 DUP2 PUSH1 0x1 ADD PUSH1 0x0 SWAP1 SLOAD SWAP1 PUSH2 0x100 EXP SWAP1 DIV PUSH20 0xFFFFFFFFFFFFFFFFFFFFFFFFFFFFFFFFFFFFFFFF AND CALLER DUP4 PUSH1 0x0 ADD PUSH1 0x0 SWAP1 SLOAD SWAP1 PUSH2 0x100 EXP SWAP1 DIV PUSH20 0xFFFFFFFFFFFFFFFFFFFFFFFFFFFFFFFFFFFFFFFF AND DUP5 PUSH1 0x2 ADD SLOAD DUP6 PUSH1 0x3 ADD SLOAD DUP8 PUSH1 0x40 MLOAD PUSH2 0x55B SWAP7 SWAP6 SWAP5 SWAP4 SWAP3 SWAP2 SWAP1 PUSH2 0xCDC JUMP JUMPDEST PUSH1 0x40 MLOAD DUP1 SWAP2 SUB SWAP1 LOG1 POP POP JUMP JUMPDEST PUSH1 0x0 PUSH1 0x1 PUSH1 0x0 DUP4 DUP2 MSTORE PUSH1 0x20 ADD SWAP1 DUP2 MSTORE PUSH1 0x20 ADD PUSH1 0x0 KECCAK256 SWAP1 POP PUSH1 0x0 PUSH1 0x2 DUP2 GT ISZERO PUSH2 0x592 JUMPI PUSH2 0x591 PUSH2 0xFBF JUMP JUMPDEST JUMPDEST DUP2 PUSH1 0x4 ADD PUSH1 0x0 SWAP1 SLOAD SWAP1 PUSH2 0x100 EXP SWAP1 DIV PUSH1 0xFF AND PUSH1 0x2 DUP2 GT ISZERO PUSH2 0x5B6 JUMPI PUSH2 0x5B5 PUSH2 0xFBF JUMP JUMPDEST JUMPDEST EQ PUSH2 0x5F6 JUMPI PUSH1 0x40 MLOAD PUSH32 0x8C379A000000000000000000000000000000000000000000000000000000000 DUP2 MSTORE PUSH1 0x4 ADD PUSH2 0x5ED SWAP1 PUSH2 0xE5A JUMP JUMPDEST PUSH1 0x40 MLOAD DUP1 SWAP2 SUB SWAP1 REVERT JUMPDEST DUP1 PUSH1 0x1 ADD PUSH1 0x0 SWAP1 SLOAD SWAP1 PUSH2 0x100 EXP SWAP1 DIV PUSH20 0xFFFFFFFFFFFFFFFFFFFFFFFFFFFFFFFFFFFFFFFF AND PUSH20 0xFFFFFFFFFFFFFFFFFFFFFFFFFFFFFFFFFFFFFFFF AND CALLER PUSH20 0xFFFFFFFFFFFFFFFFFFFFFFFFFFFFFFFFFFFFFFFF AND EQ PUSH2 0x688 JUMPI PUSH1 0x40 MLOAD PUSH32 0x8C379A000000000000000000000000000000000000000000000000000000000 DUP2 MSTORE PUSH1 0x4 ADD PUSH2 0x67F SWAP1 PUSH2 0xE7A JUMP JUMPDEST PUSH1 0x40 MLOAD DUP1 SWAP2 SUB SWAP1 REVERT JUMPDEST PUSH1 0x2 DUP2 PUSH1 0x4 ADD PUSH1 0x0 PUSH2 0x100 EXP DUP2 SLOAD DUP2 PUSH1 0xFF MUL NOT AND SWAP1 DUP4 PUSH1 0x2 DUP2 GT ISZERO PUSH2 0x6B0 JUMPI PUSH2 0x6AF PUSH2 0xFBF JUMP JUMPDEST JUMPDEST MUL OR SWAP1 SSTORE POP DUP1 PUSH1 0x0 ADD PUSH1 0x0 SWAP1 SLOAD SWAP1 PUSH2 0x100 EXP SWAP1 DIV PUSH20 0xFFFFFFFFFFFFFFFFFFFFFFFFFFFFFFFFFFFFFFFF AND PUSH20 0xFFFFFFFFFFFFFFFFFFFFFFFFFFFFFFFFFFFFFFFF AND PUSH4 0x23B872DD ADDRESS CALLER DUP5 PUSH1 0x2 ADD SLOAD PUSH1 0x40 MLOAD DUP5 PUSH4 0xFFFFFFFF AND PUSH1 0xE0 SHL DUP2 MSTORE PUSH1 0x4 ADD PUSH2 0x71A SWAP4 SWAP3 SWAP2 SWAP1 PUSH2 0xD3D JUMP JUMPDEST PUSH1 0x0 PUSH1 0x40 MLOAD DUP1 DUP4 SUB DUP2 PUSH1 0x0 DUP8 DUP1 EXTCODESIZE ISZERO DUP1 ISZERO PUSH2 0x734 JUMPI PUSH1 0x0 DUP1 REVERT JUMPDEST POP GAS CALL ISZERO DUP1 ISZERO PUSH2 0x748 JUMPI RETURNDATASIZE PUSH1 0x0 DUP1 RETURNDATACOPY RETURNDATASIZE PUSH1 0x0 REVERT JUMPDEST POP POP POP POP PUSH32 0x977CA88FBE72D930C467BB5E513BF5120FA044293EBF66E5DEB33354C612C9FB CALLER DUP3 PUSH1 0x0 ADD PUSH1 0x0 SWAP1 SLOAD SWAP1 PUSH2 0x100 EXP SWAP1 DIV PUSH20 0xFFFFFFFFFFFFFFFFFFFFFFFFFFFFFFFFFFFFFFFF AND DUP4 PUSH1 0x2 ADD SLOAD PUSH1 0x40 MLOAD PUSH2 0x7A7 SWAP4 SWAP3 SWAP2 SWAP1 PUSH2 0xD3D JUMP JUMPDEST PUSH1 0x40 MLOAD DUP1 SWAP2 SUB SWAP1 LOG1 POP POP JUMP JUMPDEST DUP3 PUSH20 0xFFFFFFFFFFFFFFFFFFFFFFFFFFFFFFFFFFFFFFFF AND PUSH4 0x23B872DD CALLER ADDRESS DUP6 PUSH1 0x40 MLOAD DUP5 PUSH4 0xFFFFFFFF AND PUSH1 0xE0 SHL DUP2 MSTORE PUSH1 0x4 ADD PUSH2 0x7F0 SWAP4 SWAP3 SWAP2 SWAP1 PUSH2 0xD3D JUMP JUMPDEST PUSH1 0x0 PUSH1 0x40 MLOAD DUP1 DUP4 SUB DUP2 PUSH1 0x0 DUP8 DUP1 EXTCODESIZE ISZERO DUP1 ISZERO PUSH2 0x80A JUMPI PUSH1 0x0 DUP1 REVERT JUMPDEST POP GAS CALL ISZERO DUP1 ISZERO PUSH2 0x81E JUMPI RETURNDATASIZE PUSH1 0x0 DUP1 RETURNDATACOPY RETURNDATASIZE PUSH1 0x0 REVERT JUMPDEST POP POP POP POP PUSH1 0x0 PUSH1 0x40 MLOAD DUP1 PUSH1 0xA0 ADD PUSH1 0x40 MSTORE DUP1 DUP6 PUSH20 0xFFFFFFFFFFFFFFFFFFFFFFFFFFFFFFFFFFFFFFFF AND DUP2 MSTORE PUSH1 0x20 ADD CALLER PUSH20 0xFFFFFFFFFFFFFFFFFFFFFFFFFFFFFFFFFFFFFFFF AND DUP2 MSTORE PUSH1 0x20 ADD DUP5 DUP2 MSTORE PUSH1 0x20 ADD DUP4 DUP2 MSTORE PUSH1 0x20 ADD PUSH1 0x0 PUSH1 0x2 DUP2 GT ISZERO PUSH2 0x887 JUMPI PUSH2 0x886 PUSH2 0xFBF JUMP JUMPDEST JUMPDEST DUP2 MSTORE POP SWAP1 POP DUP1 PUSH1 0x1 PUSH1 0x0 DUP1 PUSH1 0x0 DUP2 SLOAD DUP1 SWAP3 SWAP2 SWAP1 PUSH2 0x8A3 SWAP1 PUSH2 0xF47 JUMP JUMPDEST SWAP2 SWAP1 POP SSTORE DUP2 MSTORE PUSH1 0x20 ADD SWAP1 DUP2 MSTORE PUSH1 0x20 ADD PUSH1 0x0 KECCAK256 PUSH1 0x0 DUP3 ADD MLOAD DUP2 PUSH1 0x0 ADD PUSH1 0x0 PUSH2 0x100 EXP DUP2 SLOAD DUP2 PUSH20 0xFFFFFFFFFFFFFFFFFFFFFFFFFFFFFFFFFFFFFFFF MUL NOT AND SWAP1 DUP4 PUSH20 0xFFFFFFFFFFFFFFFFFFFFFFFFFFFFFFFFFFFFFFFF AND MUL OR SWAP1 SSTORE POP PUSH1 0x20 DUP3 ADD MLOAD DUP2 PUSH1 0x1 ADD PUSH1 0x0 PUSH2 0x100 EXP DUP2 SLOAD DUP2 PUSH20 0xFFFFFFFFFFFFFFFFFFFFFFFFFFFFFFFFFFFFFFFF MUL NOT AND SWAP1 DUP4 PUSH20 0xFFFFFFFFFFFFFFFFFFFFFFFFFFFFFFFFFFFFFFFF AND MUL OR SWAP1 SSTORE POP PUSH1 0x40 DUP3 ADD MLOAD DUP2 PUSH1 0x2 ADD SSTORE PUSH1 0x60 DUP3 ADD MLOAD DUP2 PUSH1 0x3 ADD SSTORE PUSH1 0x80 DUP3 ADD MLOAD DUP2 PUSH1 0x4 ADD PUSH1 0x0 PUSH2 0x100 EXP DUP2 SLOAD DUP2 PUSH1 0xFF MUL NOT AND SWAP1 DUP4 PUSH1 0x2 DUP2 GT ISZERO PUSH2 0x982 JUMPI PUSH2 0x981 PUSH2 0xFBF JUMP JUMPDEST JUMPDEST MUL OR SWAP1 SSTORE POP SWAP1 POP POP PUSH32 0xABFB5EDCB4CA5AE4AC3D101F5E471E4BD364FF2A111DB101F887C2D45737E331 CALLER DUP6 DUP6 DUP6 PUSH1 0x0 SLOAD PUSH1 0x40 MLOAD PUSH2 0x9C3 SWAP6 SWAP5 SWAP4 SWAP3 SWAP2 SWAP1 PUSH2 0xDC7 JUMP JUMPDEST PUSH1 0x40 MLOAD DUP1 SWAP2 SUB SWAP1 LOG1 POP POP POP POP JUMP JUMPDEST PUSH1 0x1 PUSH1 0x20 MSTORE DUP1 PUSH1 0x0 MSTORE PUSH1 0x40 PUSH1 0x0 KECCAK256 PUSH1 0x0 SWAP2 POP SWAP1 POP DUP1 PUSH1 0x0 ADD PUSH1 0x0 SWAP1 SLOAD SWAP1 PUSH2 0x100 EXP SWAP1 DIV PUSH20 0xFFFFFFFFFFFFFFFFFFFFFFFFFFFFFFFFFFFFFFFF AND SWAP1 DUP1 PUSH1 0x1 ADD PUSH1 0x0 SWAP1 SLOAD SWAP1 PUSH2 0x100 EXP SWAP1 DIV PUSH20 0xFFFFFFFFFFFFFFFFFFFFFFFFFFFFFFFFFFFFFFFF AND SWAP1 DUP1 PUSH1 0x2 ADD SLOAD SWAP1 DUP1 PUSH1 0x3 ADD SLOAD SWAP1 DUP1 PUSH1 0x4 ADD PUSH1 0x0 SWAP1 SLOAD SWAP1 PUSH2 0x100 EXP SWAP1 DIV PUSH1 0xFF AND SWAP1 POP DUP6 JUMP JUMPDEST PUSH1 0x40 MLOAD DUP1 PUSH1 0xA0 ADD PUSH1 0x40 MSTORE DUP1 PUSH1 0x0 PUSH20 0xFFFFFFFFFFFFFFFFFFFFFFFFFFFFFFFFFFFFFFFF AND DUP2 MSTORE PUSH1 0x20 ADD PUSH1 0x0 PUSH20 0xFFFFFFFFFFFFFFFFFFFFFFFFFFFFFFFFFFFFFFFF AND DUP2 MSTORE PUSH1 0x20 ADD PUSH1 0x0 DUP2 MSTORE PUSH1 0x20 ADD PUSH1 0x0 DUP2 MSTORE PUSH1 0x20 ADD PUSH1 0x0 PUSH1 0x2 DUP2 GT ISZERO PUSH2 0xABB JUMPI PUSH2 0xABA PUSH2 0xFBF JUMP JUMPDEST JUMPDEST DUP2 MSTORE POP SWAP1 JUMP JUMPDEST PUSH1 0x0 DUP2 CALLDATALOAD SWAP1 POP PUSH2 0xAD0 DUP2 PUSH2 0x10FA JUMP JUMPDEST SWAP3 SWAP2 POP POP JUMP JUMPDEST PUSH1 0x0 DUP2 CALLDATALOAD SWAP1 POP PUSH2 0xAE5 DUP2 PUSH2 0x1111 JUMP JUMPDEST SWAP3 SWAP2 POP POP JUMP JUMPDEST PUSH1 0x0 DUP1 PUSH1 0x0 PUSH1 0x60 DUP5 DUP7 SUB SLT ISZERO PUSH2 0xB04 JUMPI PUSH2 0xB03 PUSH2 0xFEE JUMP JUMPDEST JUMPDEST PUSH1 0x0 PUSH2 0xB12 DUP7 DUP3 DUP8 ADD PUSH2 0xAC1 JUMP JUMPDEST SWAP4 POP POP PUSH1 0x20 PUSH2 0xB23 DUP7 DUP3 DUP8 ADD PUSH2 0xAD6 JUMP JUMPDEST SWAP3 POP POP PUSH1 0x40 PUSH2 0xB34 DUP7 DUP3 DUP8 ADD PUSH2 0xAD6 JUMP JUMPDEST SWAP2 POP POP SWAP3 POP SWAP3 POP SWAP3 JUMP JUMPDEST PUSH1 0x0 PUSH1 0x20 DUP3 DUP5 SUB SLT ISZERO PUSH2 0xB54 JUMPI PUSH2 0xB53 PUSH2 0xFEE JUMP JUMPDEST JUMPDEST PUSH1 0x0 PUSH2 0xB62 DUP5 DUP3 DUP6 ADD PUSH2 0xAD6 JUMP JUMPDEST SWAP2 POP POP SWAP3 SWAP2 POP POP JUMP JUMPDEST PUSH2 0xB74 DUP2 PUSH2 0xEE6 JUMP JUMPDEST DUP3 MSTORE POP POP JUMP JUMPDEST PUSH2 0xB83 DUP2 PUSH2 0xEE6 JUMP JUMPDEST DUP3 MSTORE POP POP JUMP JUMPDEST PUSH2 0xB92 DUP2 PUSH2 0xF35 JUMP JUMPDEST DUP3 MSTORE POP POP JUMP JUMPDEST PUSH2 0xBA1 DUP2 PUSH2 0xF35 JUMP JUMPDEST DUP3 MSTORE POP POP JUMP JUMPDEST PUSH1 0x0 PUSH2 0xBB4 PUSH1 0x16 DUP4 PUSH2 0xED5 JUMP JUMPDEST SWAP2 POP PUSH2 0xBBF DUP3 PUSH2 0xFF3 JUMP JUMPDEST PUSH1 0x20 DUP3 ADD SWAP1 POP SWAP2 SWAP1 POP JUMP JUMPDEST PUSH1 0x0 PUSH2 0xBD7 PUSH1 0x12 DUP4 PUSH2 0xED5 JUMP JUMPDEST SWAP2 POP PUSH2 0xBE2 DUP3 PUSH2 0x101C JUMP JUMPDEST PUSH1 0x20 DUP3 ADD SWAP1 POP SWAP2 SWAP1 POP JUMP JUMPDEST PUSH1 0x0 PUSH2 0xBFA PUSH1 0x15 DUP4 PUSH2 0xED5 JUMP JUMPDEST SWAP2 POP PUSH2 0xC05 DUP3 PUSH2 0x1045 JUMP JUMPDEST PUSH1 0x20 DUP3 ADD SWAP1 POP SWAP2 SWAP1 POP JUMP JUMPDEST PUSH1 0x0 PUSH2 0xC1D PUSH1 0x23 DUP4 PUSH2 0xED5 JUMP JUMPDEST SWAP2 POP PUSH2 0xC28 DUP3 PUSH2 0x106E JUMP JUMPDEST PUSH1 0x40 DUP3 ADD SWAP1 POP SWAP2 SWAP1 POP JUMP JUMPDEST PUSH1 0x0 PUSH2 0xC40 PUSH1 0x1B DUP4 PUSH2 0xED5 JUMP JUMPDEST SWAP2 POP PUSH2 0xC4B DUP3 PUSH2 0x10BD JUMP JUMPDEST PUSH1 0x20 DUP3 ADD SWAP1 POP SWAP2 SWAP1 POP JUMP JUMPDEST PUSH1 0xA0 DUP3 ADD PUSH1 0x0 DUP3 ADD MLOAD PUSH2 0xC6C PUSH1 0x0 DUP6 ADD DUP3 PUSH2 0xB6B JUMP JUMPDEST POP PUSH1 0x20 DUP3 ADD MLOAD PUSH2 0xC7F PUSH1 0x20 DUP6 ADD DUP3 PUSH2 0xB6B JUMP JUMPDEST POP PUSH1 0x40 DUP3 ADD MLOAD PUSH2 0xC92 PUSH1 0x40 DUP6 ADD DUP3 PUSH2 0xCBE JUMP JUMPDEST POP PUSH1 0x60 DUP3 ADD MLOAD PUSH2 0xCA5 PUSH1 0x60 DUP6 ADD DUP3 PUSH2 0xCBE JUMP JUMPDEST POP PUSH1 0x80 DUP3 ADD MLOAD PUSH2 0xCB8 PUSH1 0x80 DUP6 ADD DUP3 PUSH2 0xB89 JUMP JUMPDEST POP POP POP POP JUMP JUMPDEST PUSH2 0xCC7 DUP2 PUSH2 0xF2B JUMP JUMPDEST DUP3 MSTORE POP POP JUMP JUMPDEST PUSH2 0xCD6 DUP2 PUSH2 0xF2B JUMP JUMPDEST DUP3 MSTORE POP POP JUMP JUMPDEST PUSH1 0x0 PUSH1 0xC0 DUP3 ADD SWAP1 POP PUSH2 0xCF1 PUSH1 0x0 DUP4 ADD DUP10 PUSH2 0xB7A JUMP JUMPDEST PUSH2 0xCFE PUSH1 0x20 DUP4 ADD DUP9 PUSH2 0xB7A JUMP JUMPDEST PUSH2 0xD0B PUSH1 0x40 DUP4 ADD DUP8 PUSH2 0xB7A JUMP JUMPDEST PUSH2 0xD18 PUSH1 0x60 DUP4 ADD DUP7 PUSH2 0xCCD JUMP JUMPDEST PUSH2 0xD25 PUSH1 0x80 DUP4 ADD DUP6 PUSH2 0xCCD JUMP JUMPDEST PUSH2 0xD32 PUSH1 0xA0 DUP4 ADD DUP5 PUSH2 0xCCD JUMP JUMPDEST SWAP8 SWAP7 POP POP POP POP POP POP POP JUMP JUMPDEST PUSH1 0x0 PUSH1 0x60 DUP3 ADD SWAP1 POP PUSH2 0xD52 PUSH1 0x0 DUP4 ADD DUP7 PUSH2 0xB7A JUMP JUMPDEST PUSH2 0xD5F PUSH1 0x20 DUP4 ADD DUP6 PUSH2 0xB7A JUMP JUMPDEST PUSH2 0xD6C PUSH1 0x40 DUP4 ADD DUP5 PUSH2 0xCCD JUMP JUMPDEST SWAP5 SWAP4 POP POP POP POP JUMP JUMPDEST PUSH1 0x0 PUSH1 0xA0 DUP3 ADD SWAP1 POP PUSH2 0xD89 PUSH1 0x0 DUP4 ADD DUP9 PUSH2 0xB7A JUMP JUMPDEST PUSH2 0xD96 PUSH1 0x20 DUP4 ADD DUP8 PUSH2 0xB7A JUMP JUMPDEST PUSH2 0xDA3 PUSH1 0x40 DUP4 ADD DUP7 PUSH2 0xCCD JUMP JUMPDEST PUSH2 0xDB0 PUSH1 0x60 DUP4 ADD DUP6 PUSH2 0xCCD JUMP JUMPDEST PUSH2 0xDBD PUSH1 0x80 DUP4 ADD DUP5 PUSH2 0xB98 JUMP JUMPDEST SWAP7 SWAP6 POP POP POP POP POP POP JUMP JUMPDEST PUSH1 0x0 PUSH1 0xA0 DUP3 ADD SWAP1 POP PUSH2 0xDDC PUSH1 0x0 DUP4 ADD DUP9 PUSH2 0xB7A JUMP JUMPDEST PUSH2 0xDE9 PUSH1 0x20 DUP4 ADD DUP8 PUSH2 0xB7A JUMP JUMPDEST PUSH2 0xDF6 PUSH1 0x40 DUP4 ADD DUP7 PUSH2 0xCCD JUMP JUMPDEST PUSH2 0xE03 PUSH1 0x60 DUP4 ADD DUP6 PUSH2 0xCCD JUMP JUMPDEST PUSH2 0xE10 PUSH1 0x80 DUP4 ADD DUP5 PUSH2 0xCCD JUMP JUMPDEST SWAP7 SWAP6 POP POP POP POP POP POP JUMP JUMPDEST PUSH1 0x0 PUSH1 0x20 DUP3 ADD SWAP1 POP DUP2 DUP2 SUB PUSH1 0x0 DUP4 ADD MSTORE PUSH2 0xE33 DUP2 PUSH2 0xBA7 JUMP JUMPDEST SWAP1 POP SWAP2 SWAP1 POP JUMP JUMPDEST PUSH1 0x0 PUSH1 0x20 DUP3 ADD SWAP1 POP DUP2 DUP2 SUB PUSH1 0x0 DUP4 ADD MSTORE PUSH2 0xE53 DUP2 PUSH2 0xBCA JUMP JUMPDEST SWAP1 POP SWAP2 SWAP1 POP JUMP JUMPDEST PUSH1 0x0 PUSH1 0x20 DUP3 ADD SWAP1 POP DUP2 DUP2 SUB PUSH1 0x0 DUP4 ADD MSTORE PUSH2 0xE73 DUP2 PUSH2 0xBED JUMP JUMPDEST SWAP1 POP SWAP2 SWAP1 POP JUMP JUMPDEST PUSH1 0x0 PUSH1 0x20 DUP3 ADD SWAP1 POP DUP2 DUP2 SUB PUSH1 0x0 DUP4 ADD MSTORE PUSH2 0xE93 DUP2 PUSH2 0xC10 JUMP JUMPDEST SWAP1 POP SWAP2 SWAP1 POP JUMP JUMPDEST PUSH1 0x0 PUSH1 0x20 DUP3 ADD SWAP1 POP DUP2 DUP2 SUB PUSH1 0x0 DUP4 ADD MSTORE PUSH2 0xEB3 DUP2 PUSH2 0xC33 JUMP JUMPDEST SWAP1 POP SWAP2 SWAP1 POP JUMP JUMPDEST PUSH1 0x0 PUSH1 0xA0 DUP3 ADD SWAP1 POP PUSH2 0xECF PUSH1 0x0 DUP4 ADD DUP5 PUSH2 0xC56 JUMP JUMPDEST SWAP3 SWAP2 POP POP JUMP JUMPDEST PUSH1 0x0 DUP3 DUP3 MSTORE PUSH1 0x20 DUP3 ADD SWAP1 POP SWAP3 SWAP2 POP POP JUMP JUMPDEST PUSH1 0x0 PUSH2 0xEF1 DUP3 PUSH2 0xF0B JUMP JUMPDEST SWAP1 POP SWAP2 SWAP1 POP JUMP JUMPDEST PUSH1 0x0 DUP2 SWAP1 POP PUSH2 0xF06 DUP3 PUSH2 0x10E6 JUMP JUMPDEST SWAP2 SWAP1 POP JUMP JUMPDEST PUSH1 0x0 PUSH20 0xFFFFFFFFFFFFFFFFFFFFFFFFFFFFFFFFFFFFFFFF DUP3 AND SWAP1 POP SWAP2 SWAP1 POP JUMP JUMPDEST PUSH1 0x0 DUP2 SWAP1 POP SWAP2 SWAP1 POP JUMP JUMPDEST PUSH1 0x0 PUSH2 0xF40 DUP3 PUSH2 0xEF8 JUMP JUMPDEST SWAP1 POP SWAP2 SWAP1 POP JUMP JUMPDEST PUSH1 0x0 PUSH2 0xF52 DUP3 PUSH2 0xF2B JUMP JUMPDEST SWAP2 POP PUSH32 0xFFFFFFFFFFFFFFFFFFFFFFFFFFFFFFFFFFFFFFFFFFFFFFFFFFFFFFFFFFFFFFFF DUP3 EQ ISZERO PUSH2 0xF85 JUMPI PUSH2 0xF84 PUSH2 0xF90 JUMP JUMPDEST JUMPDEST PUSH1 0x1 DUP3 ADD SWAP1 POP SWAP2 SWAP1 POP JUMP JUMPDEST PUSH32 0x4E487B7100000000000000000000000000000000000000000000000000000000 PUSH1 0x0 MSTORE PUSH1 0x11 PUSH1 0x4 MSTORE PUSH1 0x24 PUSH1 0x0 REVERT JUMPDEST PUSH32 0x4E487B7100000000000000000000000000000000000000000000000000000000 PUSH1 0x0 MSTORE PUSH1 0x21 PUSH1 0x4 MSTORE PUSH1 0x24 PUSH1 0x0 REVERT JUMPDEST PUSH1 0x0 DUP1 REVERT JUMPDEST PUSH32 0x4C697374696E67206D7573742062652061637469766500000000000000000000 PUSH1 0x0 DUP3 ADD MSTORE POP JUMP JUMPDEST PUSH32 0x496E73756666696369656E742066756E64730000000000000000000000000000 PUSH1 0x0 DUP3 ADD MSTORE POP JUMP JUMPDEST PUSH32 0x4C697374696E67206973206E6F74206163746976650000000000000000000000 PUSH1 0x0 DUP3 ADD MSTORE POP JUMP JUMPDEST PUSH32 0x4D75737420626520746865206F776E657220746F2063616E63656C206C697374 PUSH1 0x0 DUP3 ADD MSTORE PUSH32 0x696E670000000000000000000000000000000000000000000000000000000000 PUSH1 0x20 DUP3 ADD MSTORE POP JUMP JUMPDEST PUSH32 0x43616E6E6F742062757920796F7572206F776E206C697374696E670000000000 PUSH1 0x0 DUP3 ADD MSTORE POP JUMP JUMPDEST PUSH1 0x3 DUP2 LT PUSH2 0x10F7 JUMPI PUSH2 0x10F6 PUSH2 0xFBF JUMP JUMPDEST JUMPDEST POP JUMP JUMPDEST PUSH2 0x1103 DUP2 PUSH2 0xEE6 JUMP JUMPDEST DUP2 EQ PUSH2 0x110E JUMPI PUSH1 0x0 DUP1 REVERT JUMPDEST POP JUMP JUMPDEST PUSH2 0x111A DUP2 PUSH2 0xF2B JUMP JUMPDEST DUP2 EQ PUSH2 0x1125 JUMPI PUSH1 0x0 DUP1 REVERT JUMPDEST POP JUMP INVALID LOG2 PUSH5 0x6970667358 0x22 SLT KECCAK256 PUSH8 0xA0ADAF8FC4B6183B SLT CALLDATACOPY 0xA9 STATICCALL SWAP15 PUSH18 0x5CA36F79F3AE40250B540D9101EE1788BF64 PUSH20 0x6F6C634300080700330000000000000000000000 "
				},
				"gasEstimates": {
					"creation": {
						"codeDepositCost": "889200",
						"executionCost": "5928",
						"totalCost": "895128"
					},
					"external": {
						"buyToken(uint256)": "infinite",
						"cancel(uint256)": "infinite",
						"getListing(uint256)": "infinite",
						"listToken(address,uint256,uint256)": "infinite",
						"listings(uint256)": "infinite"
					}
				},
				"methodIdentifiers": {
					"buyToken(uint256)": "2d296bf1",
					"cancel(uint256)": "40e58ee5",
					"getListing(uint256)": "107a274a",
					"listToken(address,uint256,uint256)": "7e07590d",
					"listings(uint256)": "de74e57b"
				}
			},
			"userdoc": {
				"kind": "user",
				"methods": {},
				"version": 1
			}
		}
	}
}