{
	"data": {
		"bytecode": {
			"linkReferences": {},
			"object": "60806040526000805534801561001457600080fd5b5061115e806100246000396000f3fe60806040526004361061004a5760003560e01c8063107a274a1461004f5780632d296bf11461008c57806340e58ee5146100a85780637e07590d146100d1578063de74e57b146100fa575b600080fd5b34801561005b57600080fd5b5061007660048036038101906100719190610b3e565b61013b565b6040516100839190610eba565b60405180910390f35b6100a660048036038101906100a19190610b3e565b610263565b005b3480156100b457600080fd5b506100cf60048036038101906100ca9190610b3e565b610567565b005b3480156100dd57600080fd5b506100f860048036038101906100f39190610aeb565b6107b3565b005b34801561010657600080fd5b50610121600480360381019061011c9190610b3e565b6109d1565b604051610132959493929190610d74565b60405180910390f35b610143610a54565b600160008381526020019081526020016000206040518060a00160405290816000820160009054906101000a900473ffffffffffffffffffffffffffffffffffffffff1673ffffffffffffffffffffffffffffffffffffffff1673ffffffffffffffffffffffffffffffffffffffff1681526020016001820160009054906101000a900473ffffffffffffffffffffffffffffffffffffffff1673ffffffffffffffffffffffffffffffffffffffff1673ffffffffffffffffffffffffffffffffffffffff16815260200160028201548152602001600382015481526020016004820160009054906101000a900460ff16600281111561024657610245610fbf565b5b600281111561025857610257610fbf565b5b815250509050919050565b60006001600083815260200190815260200160002090506000600281111561028e5761028d610fbf565b5b8160040160009054906101000a900460ff1660028111156102b2576102b1610fbf565b5b146102f2576040517f08c379a00000000000000000000000000000000000000000000000000000000081526004016102e990610e1a565b60405180910390fd5b8060010160009054906101000a900473ffffffffffffffffffffffffffffffffffffffff1673ffffffffffffffffffffffffffffffffffffffff163373ffffffffffffffffffffffffffffffffffffffff161415610385576040517f08c379a000000000000000000000000000000000000000000000000000000000815260040161037c90610e9a565b60405180910390fd5b80600301543410156103cc576040517f08c379a00000000000000000000000000000000000000000000000000000000081526004016103c390610e3a565b60405180910390fd5b8060000160009054906101000a900473ffffffffffffffffffffffffffffffffffffffff1673ffffffffffffffffffffffffffffffffffffffff166323b872dd303384600201546040518463ffffffff1660e01b815260040161043193929190610d3d565b600060405180830381600087803b15801561044b57600080fd5b505af115801561045f573d6000803e3d6000fd5b505050508060010160009054906101000a900473ffffffffffffffffffffffffffffffffffffffff1673ffffffffffffffffffffffffffffffffffffffff166108fc82600301549081150290604051600060405180830381858888f193505050501580156104d1573d6000803e3d6000fd5b507fb98b19c2f39a8910882da6b63c2dceedb6e0c627a20418117ee5312e03e0ad228160010160009054906101000a900473ffffffffffffffffffffffffffffffffffffffff16338360000160009054906101000a900473ffffffffffffffffffffffffffffffffffffffff16846002015485600301548760405161055b96959493929190610cdc565b60405180910390a15050565b60006001600083815260200190815260200160002090506000600281111561059257610591610fbf565b5b8160040160009054906101000a900460ff1660028111156105b6576105b5610fbf565b5b146105f6576040517f08c379a00000000000000000000000000000000000000000000000000000000081526004016105ed90610e5a565b60405180910390fd5b8060010160009054906101000a900473ffffffffffffffffffffffffffffffffffffffff1673ffffffffffffffffffffffffffffffffffffffff163373ffffffffffffffffffffffffffffffffffffffff1614610688576040517f08c379a000000000000000000000000000000000000000000000000000000000815260040161067f90610e7a565b60405180910390fd5b60028160040160006101000a81548160ff021916908360028111156106b0576106af610fbf565b5b02179055508060000160009054906101000a900473ffffffffffffffffffffffffffffffffffffffff1673ffffffffffffffffffffffffffffffffffffffff166323b872dd303384600201546040518463ffffffff1660e01b815260040161071a93929190610d3d565b600060405180830381600087803b15801561073457600080fd5b505af1158015610748573d6000803e3d6000fd5b505050507f977ca88fbe72d930c467bb5e513bf5120fa044293ebf66e5deb33354c612c9fb338260000160009054906101000a900473ffffffffffffffffffffffffffffffffffffffff1683600201546040516107a793929190610d3d565b60405180910390a15050565b8273ffffffffffffffffffffffffffffffffffffffff166323b872dd3330856040518463ffffffff1660e01b81526004016107f093929190610d3d565b600060405180830381600087803b15801561080a57600080fd5b505af115801561081e573d6000803e3d6000fd5b5050505060006040518060a001604052808573ffffffffffffffffffffffffffffffffffffffff1681526020013373ffffffffffffffffffffffffffffffffffffffff1681526020018481526020018381526020016000600281111561088757610886610fbf565b5b815250905080600160008060008154809291906108a390610f47565b91905055815260200190815260200160002060008201518160000160006101000a81548173ffffffffffffffffffffffffffffffffffffffff021916908373ffffffffffffffffffffffffffffffffffffffff16021790555060208201518160010160006101000a81548173ffffffffffffffffffffffffffffffffffffffff021916908373ffffffffffffffffffffffffffffffffffffffff160217905550604082015181600201556060820151816003015560808201518160040160006101000a81548160ff0219169083600281111561098257610981610fbf565b5b02179055509050507fabfb5edcb4ca5ae4ac3d101f5e471e4bd364ff2a111db101f887c2d45737e331338585856000546040516109c3959493929190610dc7565b60405180910390a150505050565b60016020528060005260406000206000915090508060000160009054906101000a900473ffffffffffffffffffffffffffffffffffffffff16908060010160009054906101000a900473ffffffffffffffffffffffffffffffffffffffff16908060020154908060030154908060040160009054906101000a900460ff16905085565b6040518060a00160405280600073ffffffffffffffffffffffffffffffffffffffff168152602001600073ffffffffffffffffffffffffffffffffffffffff168152602001600081526020016000815260200160006002811115610abb57610aba610fbf565b5b81525090565b600081359050610ad0816110fa565b92915050565b600081359050610ae581611111565b92915050565b600080600060608486031215610b0457610b03610fee565b5b6000610b1286828701610ac1565b9350506020610b2386828701610ad6565b9250506040610b3486828701610ad6565b9150509250925092565b600060208284031215610b5457610b53610fee565b5b6000610b6284828501610ad6565b91505092915050565b610b7481610ee6565b82525050565b610b8381610ee6565b82525050565b610b9281610f35565b82525050565b610ba181610f35565b82525050565b6000610bb4601683610ed5565b9150610bbf82610ff3565b602082019050919050565b6000610bd7601283610ed5565b9150610be28261101c565b602082019050919050565b6000610bfa601583610ed5565b9150610c0582611045565b602082019050919050565b6000610c1d602383610ed5565b9150610c288261106e565b604082019050919050565b6000610c40601b83610ed5565b9150610c4b826110bd565b602082019050919050565b60a082016000820151610c6c6000850182610b6b565b506020820151610c7f6020850182610b6b565b506040820151610c926040850182610cbe565b506060820151610ca56060850182610cbe565b506080820151610cb86080850182610b89565b50505050565b610cc781610f2b565b82525050565b610cd681610f2b565b82525050565b600060c082019050610cf16000830189610b7a565b610cfe6020830188610b7a565b610d0b6040830187610b7a565b610d186060830186610ccd565b610d256080830185610ccd565b610d3260a0830184610ccd565b979650505050505050565b6000606082019050610d526000830186610b7a565b610d5f6020830185610b7a565b610d6c6040830184610ccd565b949350505050565b600060a082019050610d896000830188610b7a565b610d966020830187610b7a565b610da36040830186610ccd565b610db06060830185610ccd565b610dbd6080830184610b98565b9695505050505050565b600060a082019050610ddc6000830188610b7a565b610de96020830187610b7a565b610df66040830186610ccd565b610e036060830185610ccd565b610e106080830184610ccd565b9695505050505050565b60006020820190508181036000830152610e3381610ba7565b9050919050565b60006020820190508181036000830152610e5381610bca565b9050919050565b60006020820190508181036000830152610e7381610bed565b9050919050565b60006020820190508181036000830152610e9381610c10565b9050919050565b60006020820190508181036000830152610eb381610c33565b9050919050565b600060a082019050610ecf6000830184610c56565b92915050565b600082825260208201905092915050565b6000610ef182610f0b565b9050919050565b6000819050610f06826110e6565b919050565b600073ffffffffffffffffffffffffffffffffffffffff82169050919050565b6000819050919050565b6000610f4082610ef8565b9050919050565b6000610f5282610f2b565b91507fffffffffffffffffffffffffffffffffffffffffffffffffffffffffffffffff821415610f8557610f84610f90565b5b600182019050919050565b7f4e487b7100000000000000000000000000000000000000000000000000000000600052601160045260246000fd5b7f4e487b7100000000000000000000000000000000000000000000000000000000600052602160045260246000fd5b600080fd5b7f4c697374696e67206d7573742062652061637469766500000000000000000000600082015250565b7f496e73756666696369656e742066756e64730000000000000000000000000000600082015250565b7f4c697374696e67206973206e6f74206163746976650000000000000000000000600082015250565b7f4d75737420626520746865206f776e657220746f2063616e63656c206c69737460008201527f696e670000000000000000000000000000000000000000000000000000000000602082015250565b7f43616e6e6f742062757920796f7572206f776e206c697374696e670000000000600082015250565b600381106110f7576110f6610fbf565b5b50565b61110381610ee6565b811461110e57600080fd5b50565b61111a81610f2b565b811461112557600080fd5b5056fea2646970667358221220e7efa65d2cef66538554b78abe0ffaec288d15342e5695f57dca966a2de6672864736f6c63430008060033",
			"opcodes": "PUSH1 0x80 PUSH1 0x40 MSTORE PUSH1 0x0 DUP1 SSTORE CALLVALUE DUP1 ISZERO PUSH2 0x14 JUMPI PUSH1 0x0 DUP1 REVERT JUMPDEST POP PUSH2 0x115E DUP1 PUSH2 0x24 PUSH1 0x0 CODECOPY PUSH1 0x0 RETURN INVALID PUSH1 0x80 PUSH1 0x40 MSTORE PUSH1 0x4 CALLDATASIZE LT PUSH2 0x4A JUMPI PUSH1 0x0 CALLDATALOAD PUSH1 0xE0 SHR DUP1 PUSH4 0x107A274A EQ PUSH2 0x4F JUMPI DUP1 PUSH4 0x2D296BF1 EQ PUSH2 0x8C JUMPI DUP1 PUSH4 0x40E58EE5 EQ PUSH2 0xA8 JUMPI DUP1 PUSH4 0x7E07590D EQ PUSH2 0xD1 JUMPI DUP1 PUSH4 0xDE74E57B EQ PUSH2 0xFA JUMPI JUMPDEST PUSH1 0x0 DUP1 REVERT JUMPDEST CALLVALUE DUP1 ISZERO PUSH2 0x5B JUMPI PUSH1 0x0 DUP1 REVERT JUMPDEST POP PUSH2 0x76 PUSH1 0x4 DUP1 CALLDATASIZE SUB DUP2 ADD SWAP1 PUSH2 0x71 SWAP2 SWAP1 PUSH2 0xB3E JUMP JUMPDEST PUSH2 0x13B JUMP JUMPDEST PUSH1 0x40 MLOAD PUSH2 0x83 SWAP2 SWAP1 PUSH2 0xEBA JUMP JUMPDEST PUSH1 0x40 MLOAD DUP1 SWAP2 SUB SWAP1 RETURN JUMPDEST PUSH2 0xA6 PUSH1 0x4 DUP1 CALLDATASIZE SUB DUP2 ADD SWAP1 PUSH2 0xA1 SWAP2 SWAP1 PUSH2 0xB3E JUMP JUMPDEST PUSH2 0x263 JUMP JUMPDEST STOP JUMPDEST CALLVALUE DUP1 ISZERO PUSH2 0xB4 JUMPI PUSH1 0x0 DUP1 REVERT JUMPDEST POP PUSH2 0xCF PUSH1 0x4 DUP1 CALLDATASIZE SUB DUP2 ADD SWAP1 PUSH2 0xCA SWAP2 SWAP1 PUSH2 0xB3E JUMP JUMPDEST PUSH2 0x567 JUMP JUMPDEST STOP JUMPDEST CALLVALUE DUP1 ISZERO PUSH2 0xDD JUMPI PUSH1 0x0 DUP1 REVERT JUMPDEST POP PUSH2 0xF8 PUSH1 0x4 DUP1 CALLDATASIZE SUB DUP2 ADD SWAP1 PUSH2 0xF3 SWAP2 SWAP1 PUSH2 0xAEB JUMP JUMPDEST PUSH2 0x7B3 JUMP JUMPDEST STOP JUMPDEST CALLVALUE DUP1 ISZERO PUSH2 0x106 JUMPI PUSH1 0x0 DUP1 REVERT JUMPDEST POP PUSH2 0x121 PUSH1 0x4 DUP1 CALLDATASIZE SUB DUP2 ADD SWAP1 PUSH2 0x11C SWAP2 SWAP1 PUSH2 0xB3E JUMP JUMPDEST PUSH2 0x9D1 JUMP JUMPDEST PUSH1 0x40 MLOAD PUSH2 0x132 SWAP6 SWAP5 SWAP4 SWAP3 SWAP2 SWAP1 PUSH2 0xD74 JUMP JUMPDEST PUSH1 0x40 MLOAD DUP1 SWAP2 SUB SWAP1 RETURN JUMPDEST PUSH2 0x143 PUSH2 0xA54 JUMP JUMPDEST PUSH1 0x1 PUSH1 0x0 DUP4 DUP2 MSTORE PUSH1 0x20 ADD SWAP1 DUP2 MSTORE PUSH1 0x20 ADD PUSH1 0x0 KECCAK256 PUSH1 0x40 MLOAD DUP1 PUSH1 0xA0 ADD PUSH1 0x40 MSTORE SWAP1 DUP2 PUSH1 0x0 DUP3 ADD PUSH1 0x0 SWAP1 SLOAD SWAP1 PUSH2 0x100 EXP SWAP1 DIV PUSH20 0xFFFFFFFFFFFFFFFFFFFFFFFFFFFFFFFFFFFFFFFF AND PUSH20 0xFFFFFFFFFFFFFFFFFFFFFFFFFFFFFFFFFFFFFFFF AND PUSH20 0xFFFFFFFFFFFFFFFFFFFFFFFFFFFFFFFFFFFFFFFF AND DUP2 MSTORE PUSH1 0x20 ADD PUSH1 0x1 DUP3 ADD PUSH1 0x0 SWAP1 SLOAD SWAP1 PUSH2 0x100 EXP SWAP1 DIV PUSH20 0xFFFFFFFFFFFFFFFFFFFFFFFFFFFFFFFFFFFFFFFF AND PUSH20 0xFFFFFFFFFFFFFFFFFFFFFFFFFFFFFFFFFFFFFFFF AND PUSH20 0xFFFFFFFFFFFFFFFFFFFFFFFFFFFFFFFFFFFFFFFF AND DUP2 MSTORE PUSH1 0x20 ADD PUSH1 0x2 DUP3 ADD SLOAD DUP2 MSTORE PUSH1 0x20 ADD PUSH1 0x3 DUP3 ADD SLOAD DUP2 MSTORE PUSH1 0x20 ADD PUSH1 0x4 DUP3 ADD PUSH1 0x0 SWAP1 SLOAD SWAP1 PUSH2 0x100 EXP SWAP1 DIV PUSH1 0xFF AND PUSH1 0x2 DUP2 GT ISZERO PUSH2 0x246 JUMPI PUSH2 0x245 PUSH2 0xFBF JUMP JUMPDEST JUMPDEST PUSH1 0x2 DUP2 GT ISZERO PUSH2 0x258 JUMPI PUSH2 0x257 PUSH2 0xFBF JUMP JUMPDEST JUMPDEST DUP2 MSTORE POP POP SWAP1 POP SWAP2 SWAP1 POP JUMP JUMPDEST PUSH1 0x0 PUSH1 0x1 PUSH1 0x0 DUP4 DUP2 MSTORE PUSH1 0x20 ADD SWAP1 DUP2 MSTORE PUSH1 0x20 ADD PUSH1 0x0 KECCAK256 SWAP1 POP PUSH1 0x0 PUSH1 0x2 DUP2 GT ISZERO PUSH2 0x28E JUMPI PUSH2 0x28D PUSH2 0xFBF JUMP JUMPDEST JUMPDEST DUP2 PUSH1 0x4 ADD PUSH1 0x0 SWAP1 SLOAD SWAP1 PUSH2 0x100 EXP SWAP1 DIV PUSH1 0xFF AND PUSH1 0x2 DUP2 GT ISZERO PUSH2 0x2B2 JUMPI PUSH2 0x2B1 PUSH2 0xFBF JUMP JUMPDEST JUMPDEST EQ PUSH2 0x2F2 JUMPI PUSH1 0x40 MLOAD PUSH32 0x8C379A000000000000000000000000000000000000000000000000000000000 DUP2 MSTORE PUSH1 0x4 ADD PUSH2 0x2E9 SWAP1 PUSH2 0xE1A JUMP JUMPDEST PUSH1 0x40 MLOAD DUP1 SWAP2 SUB SWAP1 REVERT JUMPDEST DUP1 PUSH1 0x1 ADD PUSH1 0x0 SWAP1 SLOAD SWAP1 PUSH2 0x100 EXP SWAP1 DIV PUSH20 0xFFFFFFFFFFFFFFFFFFFFFFFFFFFFFFFFFFFFFFFF AND PUSH20 0xFFFFFFFFFFFFFFFFFFFFFFFFFFFFFFFFFFFFFFFF AND CALLER PUSH20 0xFFFFFFFFFFFFFFFFFFFFFFFFFFFFFFFFFFFFFFFF AND EQ ISZERO PUSH2 0x385 JUMPI PUSH1 0x40 MLOAD PUSH32 0x8C379A000000000000000000000000000000000000000000000000000000000 DUP2 MSTORE PUSH1 0x4 ADD PUSH2 0x37C SWAP1 PUSH2 0xE9A JUMP JUMPDEST PUSH1 0x40 MLOAD DUP1 SWAP2 SUB SWAP1 REVERT JUMPDEST DUP1 PUSH1 0x3 ADD SLOAD CALLVALUE LT ISZERO PUSH2 0x3CC JUMPI PUSH1 0x40 MLOAD PUSH32 0x8C379A000000000000000000000000000000000000000000000000000000000 DUP2 MSTORE PUSH1 0x4 ADD PUSH2 0x3C3 SWAP1 PUSH2 0xE3A JUMP JUMPDEST PUSH1 0x40 MLOAD DUP1 SWAP2 SUB SWAP1 REVERT JUMPDEST DUP1 PUSH1 0x0 ADD PUSH1 0x0 SWAP1 SLOAD SWAP1 PUSH2 0x100 EXP SWAP1 DIV PUSH20 0xFFFFFFFFFFFFFFFFFFFFFFFFFFFFFFFFFFFFFFFF AND PUSH20 0xFFFFFFFFFFFFFFFFFFFFFFFFFFFFFFFFFFFFFFFF AND PUSH4 0x23B872DD ADDRESS CALLER DUP5 PUSH1 0x2 ADD SLOAD PUSH1 0x40 MLOAD DUP5 PUSH4 0xFFFFFFFF AND PUSH1 0xE0 SHL DUP2 MSTORE PUSH1 0x4 ADD PUSH2 0x431 SWAP4 SWAP3 SWAP2 SWAP1 PUSH2 0xD3D JUMP JUMPDEST PUSH1 0x0 PUSH1 0x40 MLOAD DUP1 DUP4 SUB DUP2 PUSH1 0x0 DUP8 DUP1 EXTCODESIZE ISZERO DUP1 ISZERO PUSH2 0x44B JUMPI PUSH1 0x0 DUP1 REVERT JUMPDEST POP GAS CALL ISZERO DUP1 ISZERO PUSH2 0x45F JUMPI RETURNDATASIZE PUSH1 0x0 DUP1 RETURNDATACOPY RETURNDATASIZE PUSH1 0x0 REVERT JUMPDEST POP POP POP POP DUP1 PUSH1 0x1 ADD PUSH1 0x0 SWAP1 SLOAD SWAP1 PUSH2 0x100 EXP SWAP1 DIV PUSH20 0xFFFFFFFFFFFFFFFFFFFFFFFFFFFFFFFFFFFFFFFF AND PUSH20 0xFFFFFFFFFFFFFFFFFFFFFFFFFFFFFFFFFFFFFFFF AND PUSH2 0x8FC DUP3 PUSH1 0x3 ADD SLOAD SWAP1 DUP2 ISZERO MUL SWAP1 PUSH1 0x40 MLOAD PUSH1 0x0 PUSH1 0x40 MLOAD DUP1 DUP4 SUB DUP2 DUP6 DUP9 DUP9 CALL SWAP4 POP POP POP POP ISZERO DUP1 ISZERO PUSH2 0x4D1 JUMPI RETURNDATASIZE PUSH1 0x0 DUP1 RETURNDATACOPY RETURNDATASIZE PUSH1 0x0 REVERT JUMPDEST POP PUSH32 0xB98B19C2F39A8910882DA6B63C2DCEEDB6E0C627A20418117EE5312E03E0AD22 DUP2 PUSH1 0x1 ADD PUSH1 0x0 SWAP1 SLOAD SWAP1 PUSH2 0x100 EXP SWAP1 DIV PUSH20 0xFFFFFFFFFFFFFFFFFFFFFFFFFFFFFFFFFFFFFFFF AND CALLER DUP4 PUSH1 0x0 ADD PUSH1 0x0 SWAP1 SLOAD SWAP1 PUSH2 0x100 EXP SWAP1 DIV PUSH20 0xFFFFFFFFFFFFFFFFFFFFFFFFFFFFFFFFFFFFFFFF AND DUP5 PUSH1 0x2 ADD SLOAD DUP6 PUSH1 0x3 ADD SLOAD DUP8 PUSH1 0x40 MLOAD PUSH2 0x55B SWAP7 SWAP6 SWAP5 SWAP4 SWAP3 SWAP2 SWAP1 PUSH2 0xCDC JUMP JUMPDEST PUSH1 0x40 MLOAD DUP1 SWAP2 SUB SWAP1 LOG1 POP POP JUMP JUMPDEST PUSH1 0x0 PUSH1 0x1 PUSH1 0x0 DUP4 DUP2 MSTORE PUSH1 0x20 ADD SWAP1 DUP2 MSTORE PUSH1 0x20 ADD PUSH1 0x0 KECCAK256 SWAP1 POP PUSH1 0x0 PUSH1 0x2 DUP2 GT ISZERO PUSH2 0x592 JUMPI PUSH2 0x591 PUSH2 0xFBF JUMP JUMPDEST JUMPDEST DUP2 PUSH1 0x4 ADD PUSH1 0x0 SWAP1 SLOAD SWAP1 PUSH2 0x100 EXP SWAP1 DIV PUSH1 0xFF AND PUSH1 0x2 DUP2 GT ISZERO PUSH2 0x5B6 JUMPI PUSH2 0x5B5 PUSH2 0xFBF JUMP JUMPDEST JUMPDEST EQ PUSH2 0x5F6 JUMPI PUSH1 0x40 MLOAD PUSH32 0x8C379A000000000000000000000000000000000000000000000000000000000 DUP2 MSTORE PUSH1 0x4 ADD PUSH2 0x5ED SWAP1 PUSH2 0xE5A JUMP JUMPDEST PUSH1 0x40 MLOAD DUP1 SWAP2 SUB SWAP1 REVERT JUMPDEST DUP1 PUSH1 0x1 ADD PUSH1 0x0 SWAP1 SLOAD SWAP1 PUSH2 0x100 EXP SWAP1 DIV PUSH20 0xFFFFFFFFFFFFFFFFFFFFFFFFFFFFFFFFFFFFFFFF AND PUSH20 0xFFFFFFFFFFFFFFFFFFFFFFFFFFFFFFFFFFFFFFFF AND CALLER PUSH20 0xFFFFFFFFFFFFFFFFFFFFFFFFFFFFFFFFFFFFFFFF AND EQ PUSH2 0x688 JUMPI PUSH1 0x40 MLOAD PUSH32 0x8C379A000000000000000000000000000000000000000000000000000000000 DUP2 MSTORE PUSH1 0x4 ADD PUSH2 0x67F SWAP1 PUSH2 0xE7A JUMP JUMPDEST PUSH1 0x40 MLOAD DUP1 SWAP2 SUB SWAP1 REVERT JUMPDEST PUSH1 0x2 DUP2 PUSH1 0x4 ADD PUSH1 0x0 PUSH2 0x100 EXP DUP2 SLOAD DUP2 PUSH1 0xFF MUL NOT AND SWAP1 DUP4 PUSH1 0x2 DUP2 GT ISZERO PUSH2 0x6B0 JUMPI PUSH2 0x6AF PUSH2 0xFBF JUMP JUMPDEST JUMPDEST MUL OR SWAP1 SSTORE POP DUP1 PUSH1 0x0 ADD PUSH1 0x0 SWAP1 SLOAD SWAP1 PUSH2 0x100 EXP SWAP1 DIV PUSH20 0xFFFFFFFFFFFFFFFFFFFFFFFFFFFFFFFFFFFFFFFF AND PUSH20 0xFFFFFFFFFFFFFFFFFFFFFFFFFFFFFFFFFFFFFFFF AND PUSH4 0x23B872DD ADDRESS CALLER DUP5 PUSH1 0x2 ADD SLOAD PUSH1 0x40 MLOAD DUP5 PUSH4 0xFFFFFFFF AND PUSH1 0xE0 SHL DUP2 MSTORE PUSH1 0x4 ADD PUSH2 0x71A SWAP4 SWAP3 SWAP2 SWAP1 PUSH2 0xD3D JUMP JUMPDEST PUSH1 0x0 PUSH1 0x40 MLOAD DUP1 DUP4 SUB DUP2 PUSH1 0x0 DUP8 DUP1 EXTCODESIZE ISZERO DUP1 ISZERO PUSH2 0x734 JUMPI PUSH1 0x0 DUP1 REVERT JUMPDEST POP GAS CALL ISZERO DUP1 ISZERO PUSH2 0x748 JUMPI RETURNDATASIZE PUSH1 0x0 DUP1 RETURNDATACOPY RETURNDATASIZE PUSH1 0x0 REVERT JUMPDEST POP POP POP POP PUSH32 0x977CA88FBE72D930C467BB5E513BF5120FA044293EBF66E5DEB33354C612C9FB CALLER DUP3 PUSH1 0x0 ADD PUSH1 0x0 SWAP1 SLOAD SWAP1 PUSH2 0x100 EXP SWAP1 DIV PUSH20 0xFFFFFFFFFFFFFFFFFFFFFFFFFFFFFFFFFFFFFFFF AND DUP4 PUSH1 0x2 ADD SLOAD PUSH1 0x40 MLOAD PUSH2 0x7A7 SWAP4 SWAP3 SWAP2 SWAP1 PUSH2 0xD3D JUMP JUMPDEST PUSH1 0x40 MLOAD DUP1 SWAP2 SUB SWAP1 LOG1 POP POP JUMP JUMPDEST DUP3 PUSH20 0xFFFFFFFFFFFFFFFFFFFFFFFFFFFFFFFFFFFFFFFF AND PUSH4 0x23B872DD CALLER ADDRESS DUP6 PUSH1 0x40 MLOAD DUP5 PUSH4 0xFFFFFFFF AND PUSH1 0xE0 SHL DUP2 MSTORE PUSH1 0x4 ADD PUSH2 0x7F0 SWAP4 SWAP3 SWAP2 SWAP1 PUSH2 0xD3D JUMP JUMPDEST PUSH1 0x0 PUSH1 0x40 MLOAD DUP1 DUP4 SUB DUP2 PUSH1 0x0 DUP8 DUP1 EXTCODESIZE ISZERO DUP1 ISZERO PUSH2 0x80A JUMPI PUSH1 0x0 DUP1 REVERT JUMPDEST POP GAS CALL ISZERO DUP1 ISZERO PUSH2 0x81E JUMPI RETURNDATASIZE PUSH1 0x0 DUP1 RETURNDATACOPY RETURNDATASIZE PUSH1 0x0 REVERT JUMPDEST POP POP POP POP PUSH1 0x0 PUSH1 0x40 MLOAD DUP1 PUSH1 0xA0 ADD PUSH1 0x40 MSTORE DUP1 DUP6 PUSH20 0xFFFFFFFFFFFFFFFFFFFFFFFFFFFFFFFFFFFFFFFF AND DUP2 MSTORE PUSH1 0x20 ADD CALLER PUSH20 0xFFFFFFFFFFFFFFFFFFFFFFFFFFFFFFFFFFFFFFFF AND DUP2 MSTORE PUSH1 0x20 ADD DUP5 DUP2 MSTORE PUSH1 0x20 ADD DUP4 DUP2 MSTORE PUSH1 0x20 ADD PUSH1 0x0 PUSH1 0x2 DUP2 GT ISZERO PUSH2 0x887 JUMPI PUSH2 0x886 PUSH2 0xFBF JUMP JUMPDEST JUMPDEST DUP2 MSTORE POP SWAP1 POP DUP1 PUSH1 0x1 PUSH1 0x0 DUP1 PUSH1 0x0 DUP2 SLOAD DUP1 SWAP3 SWAP2 SWAP1 PUSH2 0x8A3 SWAP1 PUSH2 0xF47 JUMP JUMPDEST SWAP2 SWAP1 POP SSTORE DUP2 MSTORE PUSH1 0x20 ADD SWAP1 DUP2 MSTORE PUSH1 0x20 ADD PUSH1 0x0 KECCAK256 PUSH1 0x0 DUP3 ADD MLOAD DUP2 PUSH1 0x0 ADD PUSH1 0x0 PUSH2 0x100 EXP DUP2 SLOAD DUP2 PUSH20 0xFFFFFFFFFFFFFFFFFFFFFFFFFFFFFFFFFFFFFFFF MUL NOT AND SWAP1 DUP4 PUSH20 0xFFFFFFFFFFFFFFFFFFFFFFFFFFFFFFFFFFFFFFFF AND MUL OR SWAP1 SSTORE POP PUSH1 0x20 DUP3 ADD MLOAD DUP2 PUSH1 0x1 ADD PUSH1 0x0 PUSH2 0x100 EXP DUP2 SLOAD DUP2 PUSH20 0xFFFFFFFFFFFFFFFFFFFFFFFFFFFFFFFFFFFFFFFF MUL NOT AND SWAP1 DUP4 PUSH20 0xFFFFFFFFFFFFFFFFFFFFFFFFFFFFFFFFFFFFFFFF AND MUL OR SWAP1 SSTORE POP PUSH1 0x40 DUP3 ADD MLOAD DUP2 PUSH1 0x2 ADD SSTORE PUSH1 0x60 DUP3 ADD MLOAD DUP2 PUSH1 0x3 ADD SSTORE PUSH1 0x80 DUP3 ADD MLOAD DUP2 PUSH1 0x4 ADD PUSH1 0x0 PUSH2 0x100 EXP DUP2 SLOAD DUP2 PUSH1 0xFF MUL NOT AND SWAP1 DUP4 PUSH1 0x2 DUP2 GT ISZERO PUSH2 0x982 JUMPI PUSH2 0x981 PUSH2 0xFBF JUMP JUMPDEST JUMPDEST MUL OR SWAP1 SSTORE POP SWAP1 POP POP PUSH32 0xABFB5EDCB4CA5AE4AC3D101F5E471E4BD364FF2A111DB101F887C2D45737E331 CALLER DUP6 DUP6 DUP6 PUSH1 0x0 SLOAD PUSH1 0x40 MLOAD PUSH2 0x9C3 SWAP6 SWAP5 SWAP4 SWAP3 SWAP2 SWAP1 PUSH2 0xDC7 JUMP JUMPDEST PUSH1 0x40 MLOAD DUP1 SWAP2 SUB SWAP1 LOG1 POP POP POP POP JUMP JUMPDEST PUSH1 0x1 PUSH1 0x20 MSTORE DUP1 PUSH1 0x0 MSTORE PUSH1 0x40 PUSH1 0x0 KECCAK256 PUSH1 0x0 SWAP2 POP SWAP1 POP DUP1 PUSH1 0x0 ADD PUSH1 0x0 SWAP1 SLOAD SWAP1 PUSH2 0x100 EXP SWAP1 DIV PUSH20 0xFFFFFFFFFFFFFFFFFFFFFFFFFFFFFFFFFFFFFFFF AND SWAP1 DUP1 PUSH1 0x1 ADD PUSH1 0x0 SWAP1 SLOAD SWAP1 PUSH2 0x100 EXP SWAP1 DIV PUSH20 0xFFFFFFFFFFFFFFFFFFFFFFFFFFFFFFFFFFFFFFFF AND SWAP1 DUP1 PUSH1 0x2 ADD SLOAD SWAP1 DUP1 PUSH1 0x3 ADD SLOAD SWAP1 DUP1 PUSH1 0x4 ADD PUSH1 0x0 SWAP1 SLOAD SWAP1 PUSH2 0x100 EXP SWAP1 DIV PUSH1 0xFF AND SWAP1 POP DUP6 JUMP JUMPDEST PUSH1 0x40 MLOAD DUP1 PUSH1 0xA0 ADD PUSH1 0x40 MSTORE DUP1 PUSH1 0x0 PUSH20 0xFFFFFFFFFFFFFFFFFFFFFFFFFFFFFFFFFFFFFFFF AND DUP2 MSTORE PUSH1 0x20 ADD PUSH1 0x0 PUSH20 0xFFFFFFFFFFFFFFFFFFFFFFFFFFFFFFFFFFFFFFFF AND DUP2 MSTORE PUSH1 0x20 ADD PUSH1 0x0 DUP2 MSTORE PUSH1 0x20 ADD PUSH1 0x0 DUP2 MSTORE PUSH1 0x20 ADD PUSH1 0x0 PUSH1 0x2 DUP2 GT ISZERO PUSH2 0xABB JUMPI PUSH2 0xABA PUSH2 0xFBF JUMP JUMPDEST JUMPDEST DUP2 MSTORE POP SWAP1 JUMP JUMPDEST PUSH1 0x0 DUP2 CALLDATALOAD SWAP1 POP PUSH2 0xAD0 DUP2 PUSH2 0x10FA JUMP JUMPDEST SWAP3 SWAP2 POP POP JUMP JUMPDEST PUSH1 0x0 DUP2 CALLDATALOAD SWAP1 POP PUSH2 0xAE5 DUP2 PUSH2 0x1111 JUMP JUMPDEST SWAP3 SWAP2 POP POP JUMP JUMPDEST PUSH1 0x0 DUP1 PUSH1 0x0 PUSH1 0x60 DUP5 DUP7 SUB SLT ISZERO PUSH2 0xB04 JUMPI PUSH2 0xB03 PUSH2 0xFEE JUMP JUMPDEST JUMPDEST PUSH1 0x0 PUSH2 0xB12 DUP7 DUP3 DUP8 ADD PUSH2 0xAC1 JUMP JUMPDEST SWAP4 POP POP PUSH1 0x20 PUSH2 0xB23 DUP7 DUP3 DUP8 ADD PUSH2 0xAD6 JUMP JUMPDEST SWAP3 POP POP PUSH1 0x40 PUSH2 0xB34 DUP7 DUP3 DUP8 ADD PUSH2 0xAD6 JUMP JUMPDEST SWAP2 POP POP SWAP3 POP SWAP3 POP SWAP3 JUMP JUMPDEST PUSH1 0x0 PUSH1 0x20 DUP3 DUP5 SUB SLT ISZERO PUSH2 0xB54 JUMPI PUSH2 0xB53 PUSH2 0xFEE JUMP JUMPDEST JUMPDEST PUSH1 0x0 PUSH2 0xB62 DUP5 DUP3 DUP6 ADD PUSH2 0xAD6 JUMP JUMPDEST SWAP2 POP POP SWAP3 SWAP2 POP POP JUMP JUMPDEST PUSH2 0xB74 DUP2 PUSH2 0xEE6 JUMP JUMPDEST DUP3 MSTORE POP POP JUMP JUMPDEST PUSH2 0xB83 DUP2 PUSH2 0xEE6 JUMP JUMPDEST DUP3 MSTORE POP POP JUMP JUMPDEST PUSH2 0xB92 DUP2 PUSH2 0xF35 JUMP JUMPDEST DUP3 MSTORE POP POP JUMP JUMPDEST PUSH2 0xBA1 DUP2 PUSH2 0xF35 JUMP JUMPDEST DUP3 MSTORE POP POP JUMP JUMPDEST PUSH1 0x0 PUSH2 0xBB4 PUSH1 0x16 DUP4 PUSH2 0xED5 JUMP JUMPDEST SWAP2 POP PUSH2 0xBBF DUP3 PUSH2 0xFF3 JUMP JUMPDEST PUSH1 0x20 DUP3 ADD SWAP1 POP SWAP2 SWAP1 POP JUMP JUMPDEST PUSH1 0x0 PUSH2 0xBD7 PUSH1 0x12 DUP4 PUSH2 0xED5 JUMP JUMPDEST SWAP2 POP PUSH2 0xBE2 DUP3 PUSH2 0x101C JUMP JUMPDEST PUSH1 0x20 DUP3 ADD SWAP1 POP SWAP2 SWAP1 POP JUMP JUMPDEST PUSH1 0x0 PUSH2 0xBFA PUSH1 0x15 DUP4 PUSH2 0xED5 JUMP JUMPDEST SWAP2 POP PUSH2 0xC05 DUP3 PUSH2 0x1045 JUMP JUMPDEST PUSH1 0x20 DUP3 ADD SWAP1 POP SWAP2 SWAP1 POP JUMP JUMPDEST PUSH1 0x0 PUSH2 0xC1D PUSH1 0x23 DUP4 PUSH2 0xED5 JUMP JUMPDEST SWAP2 POP PUSH2 0xC28 DUP3 PUSH2 0x106E JUMP JUMPDEST PUSH1 0x40 DUP3 ADD SWAP1 POP SWAP2 SWAP1 POP JUMP JUMPDEST PUSH1 0x0 PUSH2 0xC40 PUSH1 0x1B DUP4 PUSH2 0xED5 JUMP JUMPDEST SWAP2 POP PUSH2 0xC4B DUP3 PUSH2 0x10BD JUMP JUMPDEST PUSH1 0x20 DUP3 ADD SWAP1 POP SWAP2 SWAP1 POP JUMP JUMPDEST PUSH1 0xA0 DUP3 ADD PUSH1 0x0 DUP3 ADD MLOAD PUSH2 0xC6C PUSH1 0x0 DUP6 ADD DUP3 PUSH2 0xB6B JUMP JUMPDEST POP PUSH1 0x20 DUP3 ADD MLOAD PUSH2 0xC7F PUSH1 0x20 DUP6 ADD DUP3 PUSH2 0xB6B JUMP JUMPDEST POP PUSH1 0x40 DUP3 ADD MLOAD PUSH2 0xC92 PUSH1 0x40 DUP6 ADD DUP3 PUSH2 0xCBE JUMP JUMPDEST POP PUSH1 0x60 DUP3 ADD MLOAD PUSH2 0xCA5 PUSH1 0x60 DUP6 ADD DUP3 PUSH2 0xCBE JUMP JUMPDEST POP PUSH1 0x80 DUP3 ADD MLOAD PUSH2 0xCB8 PUSH1 0x80 DUP6 ADD DUP3 PUSH2 0xB89 JUMP JUMPDEST POP POP POP POP JUMP JUMPDEST PUSH2 0xCC7 DUP2 PUSH2 0xF2B JUMP JUMPDEST DUP3 MSTORE POP POP JUMP JUMPDEST PUSH2 0xCD6 DUP2 PUSH2 0xF2B JUMP JUMPDEST DUP3 MSTORE POP POP JUMP JUMPDEST PUSH1 0x0 PUSH1 0xC0 DUP3 ADD SWAP1 POP PUSH2 0xCF1 PUSH1 0x0 DUP4 ADD DUP10 PUSH2 0xB7A JUMP JUMPDEST PUSH2 0xCFE PUSH1 0x20 DUP4 ADD DUP9 PUSH2 0xB7A JUMP JUMPDEST PUSH2 0xD0B PUSH1 0x40 DUP4 ADD DUP8 PUSH2 0xB7A JUMP JUMPDEST PUSH2 0xD18 PUSH1 0x60 DUP4 ADD DUP7 PUSH2 0xCCD JUMP JUMPDEST PUSH2 0xD25 PUSH1 0x80 DUP4 ADD DUP6 PUSH2 0xCCD JUMP JUMPDEST PUSH2 0xD32 PUSH1 0xA0 DUP4 ADD DUP5 PUSH2 0xCCD JUMP JUMPDEST SWAP8 SWAP7 POP POP POP POP POP POP POP JUMP JUMPDEST PUSH1 0x0 PUSH1 0x60 DUP3 ADD SWAP1 POP PUSH2 0xD52 PUSH1 0x0 DUP4 ADD DUP7 PUSH2 0xB7A JUMP JUMPDEST PUSH2 0xD5F PUSH1 0x20 DUP4 ADD DUP6 PUSH2 0xB7A JUMP JUMPDEST PUSH2 0xD6C PUSH1 0x40 DUP4 ADD DUP5 PUSH2 0xCCD JUMP JUMPDEST SWAP5 SWAP4 POP POP POP POP JUMP JUMPDEST PUSH1 0x0 PUSH1 0xA0 DUP3 ADD SWAP1 POP PUSH2 0xD89 PUSH1 0x0 DUP4 ADD DUP9 PUSH2 0xB7A JUMP JUMPDEST PUSH2 0xD96 PUSH1 0x20 DUP4 ADD DUP8 PUSH2 0xB7A JUMP JUMPDEST PUSH2 0xDA3 PUSH1 0x40 DUP4 ADD DUP7 PUSH2 0xCCD JUMP JUMPDEST PUSH2 0xDB0 PUSH1 0x60 DUP4 ADD DUP6 PUSH2 0xCCD JUMP JUMPDEST PUSH2 0xDBD PUSH1 0x80 DUP4 ADD DUP5 PUSH2 0xB98 JUMP JUMPDEST SWAP7 SWAP6 POP POP POP POP POP POP JUMP JUMPDEST PUSH1 0x0 PUSH1 0xA0 DUP3 ADD SWAP1 POP PUSH2 0xDDC PUSH1 0x0 DUP4 ADD DUP9 PUSH2 0xB7A JUMP JUMPDEST PUSH2 0xDE9 PUSH1 0x20 DUP4 ADD DUP8 PUSH2 0xB7A JUMP JUMPDEST PUSH2 0xDF6 PUSH1 0x40 DUP4 ADD DUP7 PUSH2 0xCCD JUMP JUMPDEST PUSH2 0xE03 PUSH1 0x60 DUP4 ADD DUP6 PUSH2 0xCCD JUMP JUMPDEST PUSH2 0xE10 PUSH1 0x80 DUP4 ADD DUP5 PUSH2 0xCCD JUMP JUMPDEST SWAP7 SWAP6 POP POP POP POP POP POP JUMP JUMPDEST PUSH1 0x0 PUSH1 0x20 DUP3 ADD SWAP1 POP DUP2 DUP2 SUB PUSH1 0x0 DUP4 ADD MSTORE PUSH2 0xE33 DUP2 PUSH2 0xBA7 JUMP JUMPDEST SWAP1 POP SWAP2 SWAP1 POP JUMP JUMPDEST PUSH1 0x0 PUSH1 0x20 DUP3 ADD SWAP1 POP DUP2 DUP2 SUB PUSH1 0x0 DUP4 ADD MSTORE PUSH2 0xE53 DUP2 PUSH2 0xBCA JUMP JUMPDEST SWAP1 POP SWAP2 SWAP1 POP JUMP JUMPDEST PUSH1 0x0 PUSH1 0x20 DUP3 ADD SWAP1 POP DUP2 DUP2 SUB PUSH1 0x0 DUP4 ADD MSTORE PUSH2 0xE73 DUP2 PUSH2 0xBED JUMP JUMPDEST SWAP1 POP SWAP2 SWAP1 POP JUMP JUMPDEST PUSH1 0x0 PUSH1 0x20 DUP3 ADD SWAP1 POP DUP2 DUP2 SUB PUSH1 0x0 DUP4 ADD MSTORE PUSH2 0xE93 DUP2 PUSH2 0xC10 JUMP JUMPDEST SWAP1 POP SWAP2 SWAP1 POP JUMP JUMPDEST PUSH1 0x0 PUSH1 0x20 DUP3 ADD SWAP1 POP DUP2 DUP2 SUB PUSH1 0x0 DUP4 ADD MSTORE PUSH2 0xEB3 DUP2 PUSH2 0xC33 JUMP JUMPDEST SWAP1 POP SWAP2 SWAP1 POP JUMP JUMPDEST PUSH1 0x0 PUSH1 0xA0 DUP3 ADD SWAP1 POP PUSH2 0xECF PUSH1 0x0 DUP4 ADD DUP5 PUSH2 0xC56 JUMP JUMPDEST SWAP3 SWAP2 POP POP JUMP JUMPDEST PUSH1 0x0 DUP3 DUP3 MSTORE PUSH1 0x20 DUP3 ADD SWAP1 POP SWAP3 SWAP2 POP POP JUMP JUMPDEST PUSH1 0x0 PUSH2 0xEF1 DUP3 PUSH2 0xF0B JUMP JUMPDEST SWAP1 POP SWAP2 SWAP1 POP JUMP JUMPDEST PUSH1 0x0 DUP2 SWAP1 POP PUSH2 0xF06 DUP3 PUSH2 0x10E6 JUMP JUMPDEST SWAP2 SWAP1 POP JUMP JUMPDEST PUSH1 0x0 PUSH20 0xFFFFFFFFFFFFFFFFFFFFFFFFFFFFFFFFFFFFFFFF DUP3 AND SWAP1 POP SWAP2 SWAP1 POP JUMP JUMPDEST PUSH1 0x0 DUP2 SWAP1 POP SWAP2 SWAP1 POP JUMP JUMPDEST PUSH1 0x0 PUSH2 0xF40 DUP3 PUSH2 0xEF8 JUMP JUMPDEST SWAP1 POP SWAP2 SWAP1 POP JUMP JUMPDEST PUSH1 0x0 PUSH2 0xF52 DUP3 PUSH2 0xF2B JUMP JUMPDEST SWAP2 POP PUSH32 0xFFFFFFFFFFFFFFFFFFFFFFFFFFFFFFFFFFFFFFFFFFFFFFFFFFFFFFFFFFFFFFFF DUP3 EQ ISZERO PUSH2 0xF85 JUMPI PUSH2 0xF84 PUSH2 0xF90 JUMP JUMPDEST JUMPDEST PUSH1 0x1 DUP3 ADD SWAP1 POP SWAP2 SWAP1 POP JUMP JUMPDEST PUSH32 0x4E487B7100000000000000000000000000000000000000000000000000000000 PUSH1 0x0 MSTORE PUSH1 0x11 PUSH1 0x4 MSTORE PUSH1 0x24 PUSH1 0x0 REVERT JUMPDEST PUSH32 0x4E487B7100000000000000000000000000000000000000000000000000000000 PUSH1 0x0 MSTORE PUSH1 0x21 PUSH1 0x4 MSTORE PUSH1 0x24 PUSH1 0x0 REVERT JUMPDEST PUSH1 0x0 DUP1 REVERT JUMPDEST PUSH32 0x4C697374696E67206D7573742062652061637469766500000000000000000000 PUSH1 0x0 DUP3 ADD MSTORE POP JUMP JUMPDEST PUSH32 0x496E73756666696369656E742066756E64730000000000000000000000000000 PUSH1 0x0 DUP3 ADD MSTORE POP JUMP JUMPDEST PUSH32 0x4C697374696E67206973206E6F74206163746976650000000000000000000000 PUSH1 0x0 DUP3 ADD MSTORE POP JUMP JUMPDEST PUSH32 0x4D75737420626520746865206F776E657220746F2063616E63656C206C697374 PUSH1 0x0 DUP3 ADD MSTORE PUSH32 0x696E670000000000000000000000000000000000000000000000000000000000 PUSH1 0x20 DUP3 ADD MSTORE POP JUMP JUMPDEST PUSH32 0x43616E6E6F742062757920796F7572206F776E206C697374696E670000000000 PUSH1 0x0 DUP3 ADD MSTORE POP JUMP JUMPDEST PUSH1 0x3 DUP2 LT PUSH2 0x10F7 JUMPI PUSH2 0x10F6 PUSH2 0xFBF JUMP JUMPDEST JUMPDEST POP JUMP JUMPDEST PUSH2 0x1103 DUP2 PUSH2 0xEE6 JUMP JUMPDEST DUP2 EQ PUSH2 0x110E JUMPI PUSH1 0x0 DUP1 REVERT JUMPDEST POP JUMP JUMPDEST PUSH2 0x111A DUP2 PUSH2 0xF2B JUMP JUMPDEST DUP2 EQ PUSH2 0x1125 JUMPI PUSH1 0x0 DUP1 REVERT JUMPDEST POP JUMP INVALID LOG2 PUSH5 0x6970667358 0x22 SLT KECCAK256 0xE7 0xEF 0xA6 0x5D 0x2C 0xEF PUSH7 0x538554B78ABE0F STATICCALL 0xEC 0x28 DUP14 ISZERO CALLVALUE 0x2E JUMP SWAP6 CREATE2 PUSH30 0xCA966A2DE6672864736F6C63430008060033000000000000000000000000 "
		},
		"gasEstimates": {
			"creation": {
				"codeDepositCost": "889200",
				"executionCost": "5928",
				"totalCost": "895128"
			},
			"external": {
				"buyToken(uint256)": "infinite",
				"cancel(uint256)": "infinite",
				"getListing(uint256)": "infinite",
				"listToken(address,uint256,uint256)": "infinite",
				"listings(uint256)": "infinite"
			}
		},
		"methodIdentifiers": {
			"buyToken(uint256)": "2d296bf1",
			"cancel(uint256)": "40e58ee5",
			"getListing(uint256)": "107a274a",
			"listToken(address,uint256,uint256)": "7e07590d",
			"listings(uint256)": "de74e57b"
		}
	},
	"abi": [
		{
			"anonymous": false,
			"inputs": [
				{
					"indexed": false,
					"internalType": "address",
					"name": "seller",
					"type": "address"
				},
				{
					"indexed": false,
					"internalType": "address",
					"name": "token",
					"type": "address"
				},
				{
					"indexed": false,
					"internalType": "uint256",
					"name": "tokenId",
					"type": "uint256"
				}
			],
			"name": "Cancel",
			"type": "event"
		},
		{
			"anonymous": false,
			"inputs": [
				{
					"indexed": false,
					"internalType": "address",
					"name": "seller",
					"type": "address"
				},
				{
					"indexed": false,
					"internalType": "address",
					"name": "token",
					"type": "address"
				},
				{
					"indexed": false,
					"internalType": "uint256",
					"name": "tokenId",
					"type": "uint256"
				},
				{
					"indexed": false,
					"internalType": "uint256",
					"name": "price",
					"type": "uint256"
				},
				{
					"indexed": false,
					"internalType": "uint256",
					"name": "listingId",
					"type": "uint256"
				}
			],
			"name": "Listed",
			"type": "event"
		},
		{
			"anonymous": false,
			"inputs": [
				{
					"indexed": false,
					"internalType": "address",
					"name": "seller",
					"type": "address"
				},
				{
					"indexed": false,
					"internalType": "address",
					"name": "buyer",
					"type": "address"
				},
				{
					"indexed": false,
					"internalType": "address",
					"name": "token",
					"type": "address"
				},
				{
					"indexed": false,
					"internalType": "uint256",
					"name": "tokenId",
					"type": "uint256"
				},
				{
					"indexed": false,
					"internalType": "uint256",
					"name": "price",
					"type": "uint256"
				},
				{
					"indexed": false,
					"internalType": "uint256",
					"name": "listingId",
					"type": "uint256"
				}
			],
			"name": "Sale",
			"type": "event"
		},
		{
			"inputs": [
				{
					"internalType": "uint256",
					"name": "_id",
					"type": "uint256"
				}
			],
			"name": "buyToken",
			"outputs": [],
			"stateMutability": "payable",
			"type": "function"
		},
		{
			"inputs": [
				{
					"internalType": "uint256",
					"name": "_id",
					"type": "uint256"
				}
			],
			"name": "cancel",
			"outputs": [],
			"stateMutability": "nonpayable",
			"type": "function"
		},
		{
			"inputs": [
				{
					"internalType": "uint256",
					"name": "_id",
					"type": "uint256"
				}
			],
			"name": "getListing",
			"outputs": [
				{
					"components": [
						{
							"internalType": "address",
							"name": "token",
							"type": "address"
						},
						{
							"internalType": "address",
							"name": "seller",
							"type": "address"
						},
						{
							"internalType": "uint256",
							"name": "tokenId",
							"type": "uint256"
						},
						{
							"internalType": "uint256",
							"name": "price",
							"type": "uint256"
						},
						{
							"internalType": "enum Market.ListingStatus",
							"name": "status",
							"type": "uint8"
						}
					],
					"internalType": "struct Market.Listing",
					"name": "",
					"type": "tuple"
				}
			],
			"stateMutability": "view",
			"type": "function"
		},
		{
			"inputs": [
				{
					"internalType": "address",
					"name": "_token",
					"type": "address"
				},
				{
					"internalType": "uint256",
					"name": "_id",
					"type": "uint256"
				},
				{
					"internalType": "uint256",
					"name": "_price",
					"type": "uint256"
				}
			],
			"name": "listToken",
			"outputs": [],
			"stateMutability": "nonpayable",
			"type": "function"
		},
		{
			"inputs": [
				{
					"internalType": "uint256",
					"name": "",
					"type": "uint256"
				}
			],
			"name": "listings",
			"outputs": [
				{
					"internalType": "address",
					"name": "token",
					"type": "address"
				},
				{
					"internalType": "address",
					"name": "seller",
					"type": "address"
				},
				{
					"internalType": "uint256",
					"name": "tokenId",
					"type": "uint256"
				},
				{
					"internalType": "uint256",
					"name": "price",
					"type": "uint256"
				},
				{
					"internalType": "enum Market.ListingStatus",
					"name": "status",
					"type": "uint8"
				}
			],
			"stateMutability": "view",
			"type": "function"
		}
	]
}